:020000040801F1
:10000000A0070020590A01089D0201089F0201086B
:10001000A3020108A7020108AB02010800000000CA
:10002000000000000000000000000000AF02010816
:10003000B102010800000000B3020108B502010886
:10004000730A0108730A0108730A0108730A010898
:10005000730A0108730A0108730A0108730A010888
:10006000730A0108730A0108730A0108730A010878
:10007000730A0108730A0108730A0108730A010868
:10008000730A0108730A0108730A0108730A010858
:10009000730A0108730A0108730A0108730A010848
:1000A000730A0108730A0108730A0108730A010838
:1000B000730A0108C7060108730A0108730A0108D8
:1000C000730A0108730A0108730A0108730A010818
:1000D000730A010891090108730A0108730A0108EB
:1000E000730A0108730A0108730A0108730A0108F8
:1000F000730A0108730A0108730A0108730A0108E8
:10010000730A0108730A0108730A0108730A0108D7
:10011000730A0108730A0108730A0108730A0108C7
:10012000730A0108730A0108730A0108730A0108B7
:10013000730A0108730A0108730A0108730A0108A7
:10014000730A0108730A0108730A0108730A010897
:10015000730A0108730A0108730A0108730A010887
:10016000730A0108730A0108730A0108730A010877
:10017000730A0108730A0108730A0108730A010867
:10018000730A0108730A0108730A0108730A010857
:10019000730A0108730A0108730A0108730A010847
:1001A000730A0108730A0108730A010800F002F8D3
:1001B00000F03CF80AA090E8000C82448344AAF1C5
:1001C0000107DA4501D100F031F8AFF2090EBAE8C3
:1001D0000F0013F0010F18BFFB1A43F0010318477B
:1001E0009C340000BC340000103A24BF78C878C1A9
:1001F000FAD8520724BF30C830C144BF04680C602D
:10020000704700000023002400250026103A28BF74
:1002100078C1FBD8520728BF30C148BF0B60704778
:100220001FB503F025FA1FBD10B510BD03F0DAF9B4
:100230001146FFF7F5FF00F011F803F00CFA03B4D4
:10024000FFF7F2FF03BC00F00FFB000030BF72B6F7
:10025000704762B6704780F3088870470D480E49B2
:1002600008604FF4A06000F017FCA82000F07AFAB4
:100270004FF4E13000F005FB00F062FB00F03EF9C6
:1002800000F074F9052000F0EBF962B601E003F02C
:10029000EAF8FCE70000010808ED00E0704700BF45
:1002A000FEE700BFFEE700BFFEE700BFFEE77047C6
:1002B00070477047704700000CB500200190009017
:1002C0008348006840F480308149086000BF80485E
:1002D000006800F4003000900198401C01900098E4
:1002E00018B90198B0F5A04FF1D17948006800F431
:1002F000003010B10120009001E000200090009833
:10030000012860D172484030006840F08050704948
:10031000403108606F48006840F440406D49086013
:100320006B48083000686A49083108600846006870
:1003300040F4004008600846006840F4A05008609F
:100340006548091F0860081F006840F08070091F99
:10035000086000BF5E48006800F000700028F9D017
:100360005C48006840F480305A49086000BF594832
:10037000406800F480300028F9D05648006840F406
:1003800000305449086000BF5248406800F4003013
:100390000028F9D040F20570504908604C480830F8
:1003A000006820F003004A490831086008460068E8
:1003B00040F00200086000BF45480830006800F0C7
:1003C0000C000828F8D10CBD10B54548006840F471
:1003D0007000434908603E48006840F001003C4915
:1003E000086000203A4908310860394800683D49F2
:1003F0000840374908603C48091D0860081F00682C
:1004000020F48020091F0860002031490C31086069
:10041000FFF752FF4FF0006031498039086010BD8E
:1004200070B500200022022300240221284D083547
:100430002D6805F00C0020B1042806D0082834D11E
:1004400007E02A4D2A4E356033E02A4D284E3560AC
:100450002FE01F4D2D1D2D68C5F380541C4D2D1D03
:100460002D6805F03F0154B1224DB5FBF1F5184E52
:10047000361D3668C6F3881605FB06F209E01B4DEB
:10048000B5FBF1F5124E361D3668C6F3881605FB2E
:1004900006F20F4D2D1D2D68C5F301456D1C6B0037
:1004A000B2FBF3F5124E356003E0104D104E35608F
:1004B00000BF00BF064D08352D68C5F303150E4E6D
:1004C000705D0B4D2D68C540094E356070BD000054
:1004D0000038024000700040085A4007003C0240CB
:1004E00088ED00E0FFFFF6FE103000240024F40049
:1004F0000000002000127A00040000201CB5012139
:10050000102000F060FE0121080300F05CFE4FF4B3
:10051000F040009001208DF8040000208DF80600C6
:1005200003208DF8050000208DF8070069460C486F
:1005300000F0A8FB2020009069460A4800F0A2FBCA
:100540001CBD10B508480188054800F020FC20219A
:10055000044800F015FC2021024800F00FFC10BDFB
:1005600000100240000C0240140000201CB50121C4
:100570004FF4C27000F027FE4FF4005000900020AE
:100580008DF8040003208DF8050000208DF8070089
:1005900069462F4800F076FB1020009069462D48F0
:1005A00000F070FB4FF48070009069462A4800F01C
:1005B00069FB1CBD10B5044614B101202749087021
:1005C0002648007868B34FF48071234800F0BCFBE4
:1005D00050B14FF400511E4800F0B6FB20B110217D
:1005E0001C4800F0B1FBE0B90A2000F01DF9002022
:1005F0001A4908704FF48071174800F0A5FB08B93C
:10060000012010BD4FF40051114800F09DFB08B9C6
:100610000220F6E710210F4800F096FBB0B9032046
:10062000EFE74FF480710C4800F08EFB01280DD1EC
:100630004103074800F088FB012807D11021054835
:1006400000F082FB012801D1044908700020D8E79E
:1006500000080240001C024000200240160000205A
:100660007FB5054644F2506438480068B0FBF4F0AA
:10067000B0FBF5F60121022000F0ECFD0296ADF88A
:1006800004400020ADF80600ADF80C0001A9304888
:1006900001F097FB012211462D4802F033F81D208E
:1006A0008DF8000001208DF8030000208DF8010076
:1006B00001208DF80200684600F0F3F9002124487B
:1006C00001F008FC7FBD10B50121214802F031F88E
:1006D000012836D11F480088B0F57A6F03DD00206D
:1006E0001C49088004E01B480088001D1949088047
:1006F00019480088B0F57A6F03DD0020164908809C
:1007000004E0154800880830134908801348008821
:10071000B0F57A6F03DD00201049088004E00F482F
:1007200000880C300D4908800D480088401D0C4998
:100730000880084640880F30488008468088193075
:1007400088800121024802F005F810BD0000002059
:10075000000400404A0000204C0000204E00002011
:100760007000002010B504466FF0040000F0E6F9B8
:10077000E11704EB5171C1F3C701394A11701046FA
:10078000007800EB4001C1EBC0104FF6FF7101EAA9
:10079000C0003449088010BD0146314A12784A43EE
:1007A0004FF0E0235A6100229A611A46126942F022
:1007B00001021A6100BF4FF0E022106900F001024F
:1007C0001AB100F48032002AF5D04FF0E02212690D
:1007D00022F001024FF0E0231A6100229A61704773
:1007E0000146204A12884A434FF0E0235A61002212
:1007F0009A611A46126942F001021A6100BF4FF075
:10080000E022106900F001021AB100F48032002ADF
:10081000F5D04FF0E022126922F001024FF0E02300
:100820001A6100229A61704770B504464FF4077050
:1008300094FBF0F0C6B24FF4077094FBF0F100FBAC
:10084000114085B205E04FF40770FFF7C9FF701E35
:10085000C6B2002EF7D115B12846FFF7C1FF70BD13
:10086000180000201A00002000BF704700BF744A23
:10087000128802F04002002AF9D0C2B2704B9A806E
:10088000704710B588B004460121084600F09BFC73
:100890000121102000F0EFFC0121880500F093FCFD
:1008A00007220921674800F078FA07220A216548E3
:1008B00000F073FA4FF4C060069002208DF81C001F
:1008C0008DF81D0000208DF81E0001208DF81F00FE
:1008D00006A95C4800F0D6F902940020ADF80C009F
:1008E000ADF80E00ADF81000ADF814000C20ADF816
:1008F000120002A9524800F020FE0121504800F0E9
:10090000A4FE40214E4800F088FF012240F225510C
:100910004B4800F050FF01224021494800F042FFBF
:1009200025208DF8040003208DF805008DF80600C1
:1009300001208DF8070001A800F0B3F808B010BD41
:1009400000B58FB04FF0006000903D48001D019051
:100950003D48029000200390C8200490002005909C
:100960004FF4806006900020079008904FF480704C
:10097000099000020A9000200B9003200C900020A8
:100980000E900D906946314801F03CF80FB000BD63
:1009900010B540F225512A4800F048FFA8B140F2B6
:1009A0002551274800F07DFF002240F225512448C0
:1009B00000F001FF012240F22441214800F0FBFE3B
:1009C0000121224801F058F824E040F224411C485B
:1009D00000F02CFFF0B140F22441194800F061FF13
:1009E0001A4801F06CF8C0F1C800194908600021EC
:1009F000164801F041F8012240F22551104800F05C
:100A0000DAFE002240F224410D4800F0D4FE01201D
:100A10001049087010BD70B505460E4600240CE064
:100A2000295D074800F03CFE00BF8021044800F02B
:100A3000E7FE0028F9D0601CC4B2B442F0DB70BD00
:100A40000010014000000240780000204064024095
:100A5000280000202C000020094880470948004752
:100A6000FEE7FEE7FEE7FEE7FEE7FEE7FEE7FEE75E
:100A7000FEE7FEE704480549054A064B70470000BB
:100A8000C9030108AD010108A0010020A007002052
:100A9000A0030020A003002032490143324A116024
:100AA000704770B5002100230F22C4781CB32E4C70
:100AB000246804F4E064C4F5E064C4F30721C1F1E0
:100AC0000404E3B20A4144789C40E1B284781440C3
:100AD00021430C07210E254C05786155047804F05C
:100AE0001F050124AC4005786D11AD0005F1E0252E
:100AF000C5F8004109E0047804F01F050124AC406A
:100B00001B4D0678761145F8264070BD194A0A40FB
:100B10000243154B1B1F1A60704739B1124A121D50
:100B200012680243104B1B1D1A6006E00E4A121D8C
:100B3000126882430C4B1B1D1A607047042808D1B1
:100B40004FF0E021096941F004014FF0E02211610A
:100B500007E04FF0E021096921F004014FF0E022A5
:100B6000116170470000FA050CED00E000E400E0C0
:100B700080E100E080FFFF1F10B5044698488442E2
:100B800008D10121084600F087FB0021012000F078
:100B900083FB76E09348844208D10121022000F0D3
:100BA0007BFB0021022000F077FB6AE08E48844244
:100BB00008D10121042000F06FFB0021042000F087
:100BC0006BFB5EE08948844208D10121082000F0D7
:100BD00063FB0021082000F05FFB52E08448844260
:100BE00008D10121102000F057FB0021102000F057
:100BF00053FB46E07F48844208D10121202000F0C9
:100C00004BFB0021202000F047FB3AE07A48844269
:100C100008D10121402000F03FFB0021402000F0DE
:100C20003BFB2EE07548844208D10121802000F072
:100C300033FB0021802000F02FFB22E0704884422B
:100C400008D10121801500F027FB0021A01500F03C
:100C500023FB16E06B48844208D10121401500F0C7
:100C60001BFB0021601500F017FB0AE06648844278
:100C700007D10121001500F00FFB0021201500F025
:100C80000BFB10BDF0B50A4600210023002400BF75
:100C90003DE0012505FA01F3156805EA03049C42CD
:100CA00034D105684F000326BE40B5430560157971
:100CB0004E00B5400668354305601579012D02D018
:100CC0001579022D16D185684F000326BE40B54325
:100CD000856055794E00B540866835438560456826
:100CE00001268E40B5434560456896798E40B6B280
:100CF00035434560C5684F000326BE40B543C56017
:100D0000D5794E00B540C6683543C560491C1029E9
:100D1000BFD3F0BD4FF6FF71016000210171417139
:100D20008171C171704708B54FF480320092009A0A
:100D30000A430092009AC261C161009AC261C2690D
:100D40000092C269009208BD0246002013690B4060
:100D50000BB1012000E0002070470146086980B215
:100D600070470246002053690B400BB1012000E0A0
:100D7000002070470146486980B270470183704780
:100D8000418370470AB1018300E0418370474161AC
:100D9000704742694A4042617047F0B50023002421
:100DA0004D07ED0E02FA05F3CE1000F1200555F8BF
:100DB00026504E07F70E0F26BE40B543CF1000F168
:100DC000200646F82750CE1000F1200555F8265091
:100DD00045EA0304CE1000F1200545F82640F0BD99
:100DE000000002400004024000080240000C0240E3
:100DF000001002400014024000180240001C024093
:100E0000002002400024024000280240F64800680A
:100E100040F00100F44908600020F34908310860FF
:100E2000F1480068F1490840EF490860F048091DA1
:100E30000860F048EC4984310860ED481038091D1D
:100E40000860E948006820F48020E7490860002035
:100E5000E5490C310860E4498C3108607047002195
:100E6000E14A921C117011460870704710B5014696
:100E70000022002300204A11012A02D1DA4C236803
:100E800008E0022A03D1D84C7034236802E0D64C23
:100E90007434236801F01F02012494401C400CB1FB
:100EA000012000E0002010BD38B500200090002493
:100EB000002500BF3120FFF7D9FF05460098401CF0
:100EC00000900098B0F5A04F01D0002DF2D0312055
:100ED000FFF7CCFF08B1012400E00024204638BD14
:100EE00001460020C04A106820F0F80040EAC10026
:100EF00010607047C049086070470021BA4A7032DC
:100F000011701170012802D004280AD104E00121D7
:100F1000B54A7032117005E00521B34A7032117084
:100F200000E000BF00BF7047B4490860704770B56B
:100F3000049C41EA82150126C6EB530645EA0645A4
:100F4000054345EA0465A84E361D356070BDAA49C3
:100F50000866704710B5830143EA016343EA0273F0
:100F6000A14C8434236010BDA3498866704710B536
:100F7000830143EA016343EA02739B4C8834236094
:100F800010BD9D49086770479B49C8647047024679
:100F90000020954B0833186820F0EC6042EA01030A
:100FA0001843914B083318607047024600208E4B5F
:100FB0000833186820F0784042EA010318438A4B4E
:100FC00008331860704701460020874A08321068CD
:100FD00020F0030008431060704783480830006821
:100FE00000F00C007047014600207F4A083210686C
:100FF00020F0F000084310607047014600207A4A54
:101000000832106820F4E050084310607047014631
:101010000020754A0832106820F4604040EAC100A0
:1010200010607047F0B50021002200240225002640
:1010300002236D4F08373F6807F00C0121B10429E6
:1010400005D0082937D105E06D4F076036E06D4FB8
:10105000076033E0644F3F1D3F68C7F38056624F1F
:101060003F1D3F6807F03F036EB1664FB7FBF3F7D4
:10107000DFF874C10CF1040CDCF800C0CCF3881C60
:1010800007FB0CF40CE05E4FB7FBF3F7DFF858C139
:101090000CF1040CDCF800C0CCF3881C07FB0CF44A
:1010A000514F3F1D3F68C7F301477F1C7D00B4FBD4
:1010B000F5F7076002E0524F076000BF00BF4A4FDC
:1010C00008373F6807F0F00109094F4F7A5C07685D
:1010D000D7404760444F08373F6807F4E051890A1A
:1010E000494F7A5C4768D74087603F4F08373F6871
:1010F00007F46041490B444F7A5C4768D740C760AA
:10110000F0BD002100F44072B2F5407F0AD1364AAA
:101110000832116821F4F8113C4A02401143324A66
:1011200008321160304A70321268C0F30B031A4360
:101130002D4B70331A60704730494439086070474E
:101140002E494039086070473149086070470146B0
:101150000020254A8C32106820F01F004A1E1043E0
:10116000214A8C3210607047014600201E4A8C32A2
:10117000106820F4F8504A1E40EA02201A4A8C32C5
:101180001060704701460020174A8C32106820F426
:10119000401008431060704701460020124A8C320C
:1011A000106820F44000084310607047014600209A
:1011B0000D4A8C32106820F44030084310607047AC
:1011C00014490860704739B1074A30321268024347
:1011D000054B30331A6006E0034A3032126882430E
:1011E000014B30331A60704700380240FFFFF6EAC7
:1011F000103000240030002000004742800E47429B
:101200000024F40000127A002D000020FFFCFF0FE4
:101210005C014742E011474229B1934A12680243F8
:10122000914B1A6004E0904A126882438E4B1A6018
:10123000704739B18C4A121D126802438A4B1B1D3C
:101240001A6006E0884A121D12688243864B1B1DF5
:101250001A60704739B1844A0C3212680243824BDB
:101260000C331A6006E0804A0C32126882437E4BCF
:101270000C331A60704739B17B4A1032126802434E
:10128000794B10331A6006E0774A103212688243B5
:10129000754B10331A60704739B1734A243A12689B
:1012A0000243714B243B1A6006E06F4A243A1268ED
:1012B00082436D4B243B1A60704739B16A4A203A29
:1012C00012680243684B203B1A6006E0664A203AE7
:1012D00012688243644B203B1A60704739B1624AFE
:1012E0001C3A12680243604B1C3B1A6006E05E4ADF
:1012F0001C3A126882435C4B1C3B1A60704739B140
:10130000594A143A12680243574B143B1A6006E0DC
:10131000554A143A12688243534B143B1A60704783
:1013200039B1514A103A126802434F4B103B1A60D0
:1013300006E04D4A103A126882434B4B103B1A604C
:10134000704739B1484A1C3212680243464B1C337D
:101350001A6006E0444A1C3212688243424B1C3336
:101360001A60704739B1404A2032126802433E4B3E
:1013700020331A6006E03C4A2032126882433A4B1E
:1013800020331A60704739B1374A24321268024359
:10139000354B24331A6006E0334A24321268824304
:1013A000314B24331A60704739B12F4A2C321268FE
:1013B00002432D4B2C331A6006E02B4A2C32126864
:1013C0008243294B2C331A60704739B1264A303298
:1013D00012680243244B30331A6006E0224A30324E
:1013E00012688243204B30331A607047012808D1BD
:1013F0001D493C31096841F008011B4A3C3211602B
:1014000007E019493C31096821F00801164A3C32CD
:101410001160704739B1144A273A12780243124BCF
:10142000273B1A7006E0104A273A127882430E4B87
:10143000273B1A7070470C484030006840F08070BD
:10144000094940310860704701460020064A283AA1
:1014500012680A400AB1012000E0002070470249EA
:1014600026390870704700003438024010B5044631
:10147000FA48844208D101211020FFF751FF0021D2
:101480001020FFF74DFF57E0F548844209D10121B4
:101490004804FFF734FF00214FF40030FFF72FFF1F
:1014A0004AE0F048844209D101218804FFF727FF70
:1014B00000214FF48020FFF722FF3DE0EA488442FC
:1014C00009D10121C804FFF71AFF00214FF40020C1
:1014D000FFF715FF30E0E548844209D101210805F6
:1014E000FFF70DFF00214FF48010FFF708FF23E006
:1014F000DF48844208D101212020FFF711FF00219D
:101500002020FFF70DFF17E0DA48844209D10121BE
:101510008807FFF7F4FE00214FF08040FFF7EFFE51
:101520000AE0D548844207D101214005FFF7E7FED4
:1015300000216005FFF7E3FE10BD2DE9FF470546DA
:101540000E460024A14600BFA046B08900B100BFEE
:101550002C8A24F44054F08804432C82AC8941F254
:101560000C608443B088318908437189084304437F
:10157000AC81AC8A24F44074B0890443AC826846E0
:10158000FFF750FDB548854202D0B948854202D1E7
:10159000DDF80C9001E0DDF80890A88900F4004027
:1015A00040B109EBC90000EB091031684900B0FBFC
:1015B000F1F707E009EBC90000EB09103168890079
:1015C000B0FBF1F76420B7FBF0F0040120096421BF
:1015D00001FB1078A88900F4004040B1322000EBF4
:1015E000C800B0FBF1F000F00700044308E032202F
:1015F00000EB08106421B0FBF1F000F00F00044391
:101600002C81BDE8FF874FF41651016000218180D5
:10161000C18001810C21418100218181704710B579
:1016200002460020108A20F470600B884C88234307
:101630008C882343CC8823431843108210BD00219B
:10164000018041808180C180704721B1828942F44C
:101650000052828104E082894DF6FF731A40828134
:101660007047028B02F47F420283028B0A4302839B
:10167000704721B1828942F40042828103E082896D
:10168000C2F30E028281704721B1828A42F4006265
:10169000828204E0828A4FF2FF731A40828270478E
:1016A000C1F308028280704701468888C0F30800B1
:1016B0007047028A4FF6F0731A400282028A0A4388
:1016C0000282704721B1828942F00202828104E0E5
:1016D00082894FF6FD731A408281704782894FF2EA
:1016E000FF731A40828182890A4382817047028A8D
:1016F0004FF6DF731A400282028A0A430282704761
:1017000021B1028A42F48042028204E0028A4BF64E
:10171000FF731A4002827047818941F00101818183
:10172000704721B1828A42F00802828204E0828AF4
:101730004FF6F7731A4082827047028BD2B202834F
:10174000028B42EA01220283704721B1828A42F071
:101750002002828204E0828A4FF6DF731A4082827E
:10176000704721B1828A42F01002828204E0828AAC
:101770004FF6EF731A4082827047828A4FF6FB73EE
:101780001A408282828A0A438282704721B1828A09
:1017900042F00202828204E0828A4FF6FD731A4010
:1017A000828270471AB1838A0B43838202E0838A64
:1017B0008B4383827047F0B5034600240026002542
:1017C000002040F66A17B94200D100BF1846C1F3A5
:1017D000421401F01F06012707FA06F5012C01D17A
:1017E0000C3004E0022C01D1103000E014301AB1AA
:1017F00007682F43076002E00768AF430760F0BD4A
:1018000002460020B1F5007F00D100BF13880B40D5
:101810000BB1012000E00020704701F40072B2F526
:10182000007F00D100BFCA430280704770B50246F6
:10183000002400230025002040F66A16B14200D1A2
:1018400000BFC1F3421501F01F03012606FA03F39E
:10185000012D13D19689334017E00000001001409C
:101860000044004000480040004C00400050004050
:101870000014014000780040007C0040022D02D19D
:10188000168A334001E0968A33400C12012606FA8C
:1018900004F41688344013B10CB1012000E000209C
:1018A00070BD10B50022002340F66A14A14200D199
:1018B00000BF0A1201249440A3B2DC43048010BD8F
:1018C000016821F001010160002101604160816037
:1018D000C160016121214161DB49884204D13D2180
:1018E000D94A103A91608CE0D7491831884205D125
:1018F0004FF47461D44A103A916082E0D249303199
:10190000884205D14FF47411CF4A103A916078E0C3
:10191000CD494831884205D14FF07461CA4A103A26
:1019200091606EE0C8496031884204D1C749C64A17
:10193000103AD16065E0C4497831884204D1C44985
:10194000C14A103AD1605CE0BF499031884204D16D
:10195000C049BD4A103AD16053E0BB49A831884222
:1019600005D14FF03D51B84A103AD16049E0BA492B
:10197000884204D13D21B84A083A116041E0B64995
:101980001831884205D14FF47461B34A083A1160A6
:1019900037E0B1493031884205D14FF47411AE4A75
:1019A000083A11602DE0AC494831884205D14FF02A
:1019B0007461A94A083A116023E0A749603188425E
:1019C00004D1A249A44A121F11601AE0A249783139
:1019D000884204D19E49A04A121F116011E09E491D
:1019E0009031884204D19B499B4A121F116008E044
:1019F0009949A831884204D14FF03D51964A121FAF
:101A00001160704710B500220268944B1A40CC68F0
:101A10000B6823434C6923438C692343CC692343DC
:101A20000C6A23434C6A23438C6A23434C6B234345
:101A30008C6B23431A430260426922F00702D1E90A
:101A40000B3423431A4342610B6943604B68836044
:101A50008B68C36010BD0021016041608160C1607E
:101A6000016141618161C161016241628162C16262
:101A7000016341638163704721B1026842F0010252
:101A8000026003E0026822F001020260704721B1A7
:101A9000026842F40042026003E0026822F400425D
:101AA0000260704721B1026842F02002026003E048
:101AB000026822F0200202607047416070470146D0
:101AC000486880B2704722B1036843F40023036082
:101AD00003E0036823F4002303600161704721B130
:101AE000026842F48022026003E0026822F480224D
:101AF000026070470AB1016100E0C16070470146B1
:101B000000200A6802F400220AB1012000E000204F
:101B10007047014600200A6802F001020AB1012064
:101B200000E000207047014600204A6902F03800BA
:101B3000704730B503460A4600200024464DAB42AC
:101B400002D24149103901E04349103902F00055F1
:101B50000DB14C6800E00C68414D2C4004EA0205D0
:101B60000DB1012000E0002030BD02463A4B9A4200
:101B700002D23548103801E03748103801F00053E0
:101B80001BB1374B0B40C36002E0354B0B40836009
:101B9000704710B501F080034BB122B1436943F0A7
:101BA0008003436103E0436923F08003436180299C
:101BB0000BD02AB1036801F01E042343036004E044
:101BC000036801F01E04A343036010BD70B5024614
:101BD000002000240025204EB24202D21A4B103BB6
:101BE00001E01D4B103B1F4E0E4036B11E2606EA8B
:101BF000D124166806EA040502E0566906F080055D
:101C000001F000560EB15C6800E01C68144E3440D0
:101C100004EA010616B10DB1012000E0002070BDFC
:101C200002460D4B9A4202D20748103801E00A489A
:101C3000103801F000531BB1094B0B40C36002E0A8
:101C4000074B0B4083607047106002403D0000204E
:101C5000400F002000003D20106402403F801CF037
:101C60007D0F7D0F3C0F3C0F10B50446FE488442AB
:101C700008D101210846FFF753FB00210120FFF79F
:101C80004FFB9DE0B4F1804F08D101210846FFF7DA
:101C900036FB00210120FFF732FB91E0F34884423C
:101CA00008D101210220FFF72AFB00210220FFF7C3
:101CB00026FB85E0EE48844208D101210420FFF78D
:101CC0001EFB00210420FFF71AFB79E0E94884425B
:101CD00008D101210820FFF712FB00210820FFF79F
:101CE0000EFB6DE0E448844208D101211020FFF78B
:101CF00006FB00211020FFF702FB61E0DF48844271
:101D000008D101212020FFF7FAFA00212020FFF757
:101D1000F6FA55E0DA48844208D101210220FFF7A3
:101D2000FFFA00210220FFF7FBFA49E0D548844280
:101D300009D101210804FFF7F3FA00214FF48030A4
:101D4000FFF7EEFA3CE0D048844209D10121480473
:101D5000FFF7E6FA00214FF40030FFF7E1FA2FE039
:101D6000CA48844209D101218804FFF7D9FA002129
:101D70004FF48020FFF7D4FA22E0C548844208D10E
:101D800001214020FFF7BBFA00214020FFF7B7FAFE
:101D900016E0C048844208D101218020FFF7AFFA45
:101DA00000218020FFF7ABFA0AE0BB48844207D14C
:101DB00001218015FFF7A3FA0021A015FFF79FFA74
:101DC00010BD00220288A84B98420ED0AC4B98421E
:101DD0000BD0B0F1804F08D0A44B984205D0A44B53
:101DE000984202D0A34B984204D14FF68F731A4009
:101DF0004B881A43A04B984207D0A04B984204D07E
:101E00004FF6FF431A400B891A4302804B68C362A6
:101E10000B880385944B984202D0994B984201D18C
:101E20008B7A03860123838270474FF0FF31416034
:101E30000021018001814180817270470185828289
:101E400070470A46002101884FF68F7319401143ED
:101E50000180704741627047C16270470146486A1D
:101E600070470146088D704721B1028842F0020296
:101E7000028004E002884FF6FD731A40028070472A
:101E800021B1028842F00402028004E002884FF689
:101E9000FB731A400280704721B1028842F0800231
:101EA000028004E002884FF67F731A400280704778
:101EB00002884FF6F7731A40028002880A430280B4
:101EC000704702884FF6FF431A40028002880A4397
:101ED0000280704721B1028842F00102028004E0D2
:101EE00002884FF6FE731A400280704770B50024D6
:101EF00000220023058C4FF6FE7635400584028CC7
:101F00008388048B4FF68F752C40B51E2C400D88AE
:101F10002C43751E2A408D892A434D882A43524DF1
:101F2000A84202D0564DA84213D14FF6F7752A4069
:101F3000CD892A434FF6FB752A408D882A434FF6F8
:101F4000FF652B404FF6FF552B400D8A2B434D8AE2
:101F50002B43838004838D684563028470BD70B514
:101F6000002400220023058C4FF6EF7635400584CF
:101F7000028C8388048B48F6FF752C404FF6FF4592
:101F80002C400D884FF6FF7606EA05252C434FF6C8
:101F9000DF752A408D8906EA05152A434D8806EA31
:101FA00005152A43304DA84202D0354DA8421DD117
:101FB0004FF67F752A40CD894FF6FF7606EA051564
:101FC0002A434FF6BF752A408D8806EA05152A4335
:101FD0004FF6FF352B404FF2FF752B400D8A06EA76
:101FE00085052B434D8A06EA85052B4383800483B0
:101FF0008D688563028470BD70B5002400220023C3
:10200000058C4FF6FF6635400584028C8388848BEF
:102010004FF68F752C404FF6FC752C400D882C43E5
:102020004FF6FF552A408D894FF6FF7606EA0525C3
:102030002A434D8806EA05252A430B4DA84202D0C3
:102040000F4DA84238D14FF2FF752A40CD894FF687
:10205000FF7606EA05252A434FF6FF352A408D888C
:1020600006EA05252A4319E000000140000400406B
:1020700000080040000C0040001000400014004028
:10208000000401400040014000440140004801407C
:1020900000180040001C0040002000404EF6FF7574
:1020A0002B404DF6FF752B400D8A06EA05152B4394
:1020B0004D8A06EA05152B43838084838D68C563AA
:1020C000028470BD70B5002200230024058C4EF6FA
:1020D000FF7635400584038C8488828B48F6FF7533
:1020E0002A404FF6FF452A400D884FF6FF7606EA54
:1020F00005252A434DF6FF752B408D8906EA0535E7
:102100002B434D8806EA05352B43FE4DA84202D0ED
:10211000FD4DA84208D14BF6FF752C400D8A4FF6B5
:10212000FF7606EA85152C43848082838D680564DA
:10213000038470BD002101804180818081608181A4
:10214000C18101824182704770B50346002000249E
:102150001846183001258D40ACB21D8CA5431D8456
:1021600009B108290AD100EB610005684FF68F76A6
:10217000354005600568154305600FE00D1FC5F388
:102180004E052844056848F6FF7635400560056829
:102190004FF6FF7606EA02263543056070BD4163BF
:1021A000704781637047C1637047016470470A4696
:1021B0000021018B4FF68F73194011430183704743
:1021C0000A460021018B48F6FF7319404FF6FF7352
:1021D00003EA02231943018370470A460021818BD9
:1021E0004FF68F7319401143818370470A460021CF
:1021F000818B48F6FF7319404FF6FF7303EA022301
:102200001943818370470A460021018B4FF6F7730B
:1022100019401143018370470A460021018B4FF298
:10222000FF7319404FF6FF7303EA0223194301833A
:1022300070470A460021818B4FF6F773194011430E
:10224000818370470A460021818B4FF2FF7319404A
:102250004FF6FF7303EA02231943818370470A464E
:102260000021018B4FF6FB73194011430183704726
:102270000A460021018B4FF6FF3319404FF6FF73DA
:1022800003EA02231943018370470A460021818B28
:102290004FF6FB7319401143818370470A460021B2
:1022A000818B4FF6FF3319404FF6FF7303EA022389
:1022B0001943818370470A460021018B4FF67F73D3
:1022C00019401143018370470A460021018BC1F375
:1022D0000E014FF6FF7303EA02231943018370478F
:1022E0000A460021818B4FF67F7319401143818389
:1022F00070470A460021818BC1F30E014FF6FF7330
:1023000003EA02231943818370470A460021018CA6
:102310004FF6FD7319401143018470470A460021AE
:10232000018C4FF6F77319401143018470470A4638
:102330000021018C4FF6DF7319404FF6FF7303EA5B
:1023400002131943018470470A460021018C4FF69D
:102350007F7319404FF6FF7303EA02131943018498
:1023600070470A460021018C4FF6FF5319404FF683
:10237000FF7303EA02231943018470470A460021D0
:10238000018C4FF2FF7319404FF6FF7303EA0223EB
:102390001943018470470A460021018C4DF6FF73F2
:1023A00019404FF6FF7303EA023319430184704763
:1023B00030B5002301248C40A3B2048C9C430484D8
:1023C000048C02FA01F5ADB22C43048430BD30B563
:1023D000002304248C40A3B2048C9C430484048C0A
:1023E00002FA01F5ADB22C43048430BD828B4FF26A
:1023F000FF331A408283828B4FF6FF7303EA012377
:102400001A4382837047F0B50C461546002100221E
:102410000026078C4EF6FF7C07EA0C070784818BA9
:10242000028C4FF6FF7707EA043640F6FF47394043
:102430004FF6FF7707EA052739434FF6FF7707EA9C
:102440000337394345F6FF773A4046F480573A431D
:1024500081830284F0BD828B4FF6F3731A4082832E
:10246000828B0A4382837047F0B50C4615460021E3
:1024700000220026078C4FF6FF6C07EA0C07078442
:10248000818B028C4FF6FF7707EA04264FF60C7714
:1024900039404FF6FF7707EA03172F4339434FF2CE
:1024A000FF573A4046F480773A4381830284F0BD77
:1024B000028B4FF2FF331A400283028B4FF6FF73F9
:1024C00003EA01231A4302837047F0B50C46154610
:1024D000002100220026078C4FF6EF7C07EA0C074C
:1024E0000784018B028C4FF6FF7707EA041640F64B
:1024F000FF4739404FF6FF7707EA033739434FF676
:10250000FF7703E0000001400004014007EA0527CF
:1025100039434FF65F773A4046F010073A4301835C
:102520000284F0BD028B4FF6F3731A400283028BD4
:102530000A4302837047F0B50C461546002100227D
:10254000068C4FF6FE773E400684018B028C4FF6D8
:102550000C7631407E1C06EA03162E4331434FF6BB
:10256000F576324044F00106324301830284F0BD27
:1025700070B505460C46208850B92389A288618829
:102580002846FFF7D8FFE1882846FFF7CBFF25E074
:10259000208804280AD12389A28861882846FFF769
:1025A00094FFE1882846FFF783FF17E0208808287A
:1025B0000AD12389A28861882846FFF755FFE18860
:1025C0002846FFF748FF09E02389A288618828464A
:1025D000FFF719FFE1882846FFF708FF70BD0021CB
:1025E00001804180012181800021C18001817047EB
:1025F0002DE9F04105460C4600260127608808B900
:10260000022600E00026A088012801D1022700E070
:1026100001272088A0B92389A28861882846FFF76E
:102620008AFFE1882846FFF77DFF23893A46314635
:102630002846FFF74AFFE1882846FFF739FF13E0F5
:102640002389A28861882846FFF73FFFE188284652
:10265000FFF72EFF23893A4631462846FFF76BFFE6
:10266000E1882846FFF75EFFBDE8F0810146486B30
:1026700070470146886B70470146C86B704701463A
:10268000086C70470A884B881A438B881A43CB889A
:102690001A430B891A434B891A438B891A43A0F8B2
:1026A000442070470021018041808180C1800181E8
:1026B00041818181704731B1B0F8442042F4004239
:1026C000A0F8442005E0B0F84420C2F30E02A0F8C0
:1026D0004420704721B1828842F00402828004E0E5
:1026E00082884FF6FB731A408280704721B182883E
:1026F00042F00102828004E082884FF6FE731A40A5
:10270000828070471AB183890B43838102E08389F9
:102710008B43838170478182704702460020138A71
:102720000B400BB1012000E000207047CA43028239
:10273000704730B50246002000230024158A05EAC0
:102740000103958905EA010413B10CB1012000E0F1
:10275000002030BDCA430282704741EA0203A0F85C
:10276000483070471AB183890B43838102E0838923
:102770008B438381704721B1828842F008028280B6
:1027800004E082884FF6F7731A408280704701890F
:102790004FF6F8721140018170470A460021018905
:1027A0004FF68F73194011430181704730B50446CD
:1027B0000D4629462046FFF7F0FF208940F007002C
:1027C000208130BD2DE9F04104460D4616461F46D6
:1027D000602D06D13B46012231462046FFF775FEAB
:1027E00005E03B46012231462046FFF7A4FE29467C
:1027F0002046FFF7D2FF208940F007002081BDE886
:10280000F08130B50C4600210189C9B24FF6FF7541
:1028100005EA0325154325432943018130BD2DE9F0
:10282000F04105460E4617469846002443463A4670
:1028300031462846FFF7E5FF2C894FF6F870044033
:1028400044F007044FF68F70044044F070042C816C
:10285000BDE8F081F0B504460D4616461F463B46DE
:10286000324629462046FFF7CCFF208940F48040BD
:102870002081F0BD82884FF68F731A408280828853
:102880000A438280704702894FF6F8731A4002812A
:1028900002890A430281704702894FF67F731A400A
:1028A000028102890A4302817047F0B50C46154641
:1028B0001E460021002200230189028B038C4FF663
:1028C000F877394021434FF6FC473A4040F2011770
:1028D0003A434FF6DD773B404FF6FF7707EA06179E
:1028E0002F433B43018102830384F0BD21B18288E1
:1028F00042F08002828004E082884FF67F731A40A3
:1029000082807047A0F850107047000010B5044650
:102910002068FE490840B0F1005F09D16068FC49B9
:1029200008602068FDF797FCF9480068804702E0DE
:10293000F8A000F0CFFD10BD10B502460B460021F7
:10294000002000BF04E0545C0444E0B24C1CE1B23F
:102950009942F8DB10BD1CB568208DF800000320FB
:102960008DF8010004208DF8020001208DF803008D
:1029700000208DF8040070208DF8050006216846BF
:10298000FEF749F81CBD1CB568208DF80000052035
:102990008DF8010014208DF8020001208DF803004D
:1029A00000208DF8040082208DF80500062168467D
:1029B000FEF731F872B64FF00060FFF7A7FF1CBDBD
:1029C0001CB568208DF8000009208DF8010010204A
:1029D0008DF8020001208DF8030000208DF804001E
:1029E00082208DF8050006216846FEF714F81CBD0C
:1029F0001CB50446072C12D168208DF80000072072
:102A00008DF8010004208DF8020001208DF80300EC
:102A100000208DF8040074208DF8050011E0682076
:102A20008DF8000008208DF8010004208DF80200C8
:102A300001208DF8030000208DF8040075208DF82A
:102A4000050006216846FDF7E6FF1CBD1CB56820A1
:102A50008DF800000A208DF8010004208DF8020096
:102A600001208DF8030000208DF8040077208DF8F8
:102A7000050006216846FDF7CEFF0020A749088023
:102A8000A7490880A7490880A7490880488088800E
:102A90001CBD7CB50446002568208DF800001D2073
:102AA0008DF8010002208DF80300082C16D10020BB
:102AB0008DF8020099490888C11700EB1161090AD5
:102AC0008DF8041095490888C11700EB11610912AF
:102AD000A0EB0121C9B28DF8051030E0092C16D108
:102AE00001208DF802008E490888C11700EB1161A2
:102AF000090A8DF804108A490888C11700EB116192
:102B00000912A0EB0121C9B28DF8051017E00A2CBB
:102B100015D102208DF8020082490888C11700EB08
:102B20001161090A8DF804107E490888C11700EB6D
:102B300011610912A0EB0121C9B28DF80510002026
:102B400005E01DF800102944CDB2411CC8B206288A
:102B5000F7DB8DF8065007216846FDF75CFF7CBD6A
:102B60007CB50446002568208DF8000010208DF803
:102B7000010001208DF80300082C07D100208DF8FA
:102B800002006A4800788DF8040012E0092C07D191
:102B900001208DF80200654840788DF8040008E0B7
:102BA0000A2C06D102208DF80200604880788DF84A
:102BB0000400002005E01DF800102944CDB2411C9E
:102BC000C8B20528F7DB8DF8055006216846FDF7E9
:102BD00022FF7CBD7CB50446002568208DF80000EE
:102BE00012208DF8010002208DF80300082C16D168
:102BF00000208DF802004E490888C11700EB1161D2
:102C0000090A8DF804104A490888C11700EB1161C0
:102C10000912A0EB0121C9B28DF8051030E0092C92
:102C200016D101208DF8020041494888C11700EBF8
:102C30001161090A8DF804103D494888C11700EB5D
:102C400011610912A0EB0121C9B28DF8051017E03E
:102C50000A2C15D102208DF8020035498888C11749
:102C600000EB1161090A8DF8041031498888C117F9
:102C700000EB11610912A0EB0121C9B28DF805101A
:102C8000002005E01DF800102944CDB2411CC8B257
:102C90000628F7DB8DF8065007216846FDF7BBFED6
:102CA0007CBD7CB50446002568208DF800001E2000
:102CB0008DF8010002208DF80300082C16D10020A9
:102CC0008DF8020018490888C11700EB1161090A44
:102CD0008DF8041014490888C11700EB116109121E
:102CE000A0EB0121C9B28DF8051045E0092C2BD1CC
:102CF00001208DF802000C494888C11700EB1161D2
:102D0000090A8DF804100849488813E00000FE2FD6
:102D1000400000206572726F722100004A0000209E
:102D20004C0000204E0000207000002050000020C9
:102D300054000020C11700EB11610912A0EB012122
:102D4000C9B28DF8051017E00A2C15D102208DF8B4
:102D50000200FB498888C11700EB1161090A8DF850
:102D60000410F7498888C11700EB11610912A0EB24
:102D70000121C9B28DF80510002005E01DF80010F2
:102D80002944CDB2411CC8B20628F7DB8DF80650A5
:102D900007216846FDF73FFE7CBD7CB50446002553
:102DA00068208DF8000013208DF8010002208DF8B6
:102DB0000300082C16D100208DF80200E149088894
:102DC000C11700EB1161090A8DF80410DD4908886C
:102DD000C11700EB11610912A0EB0121C9B28DF8F6
:102DE000051030E0092C16D101208DF80200D549DC
:102DF0004888C11700EB1161090A8DF80410D14908
:102E00004888C11700EB11610912A0EB0121C9B27A
:102E10008DF8051017E00A2C15D102208DF802005C
:102E2000C8498888C11700EB1161090A8DF80410A0
:102E3000C4498888C11700EB11610912A0EB012178
:102E4000C9B28DF80510002005E01DF800102944D6
:102E5000CDB2411CC8B20628F7DB8DF80650072119
:102E60006846FDF7D8FD7CBD7CB50446002568208A
:102E70008DF8000011208DF8010001208DF803006D
:102E8000082C06D100208DF8020001208DF80400E6
:102E90000FE0092C05D101208DF802008DF8040007
:102EA00007E00A2C05D102208DF8020001208DF8E0
:102EB0000400002005E01DF800102944CDB2411C9B
:102EC000C8B20528F7DB8DF8055006216846FDF7E6
:102ED000A2FD7CBD7CB50446002568208DF800006D
:102EE00014208DF8010001208DF80300082C06D174
:102EF00000208DF8020001208DF804000FE0092C5D
:102F000005D101208DF802008DF8040007E00A2C9D
:102F100005D102208DF8020001208DF80400002068
:102F200005E01DF800102944CDB2411CC8B20528A7
:102F3000F7DB8DF8055006216846FDF76CFD7CBD7A
:102F40007CB506460C46002568208DF80000202E32
:102F500028D120208DF801000C2C02D104208DF8FE
:102F600002000D2C02D105208DF802000E2C02D19A
:102F700006208DF8020001208DF8030000208DF856
:102F8000040000BF05E01DF800102944CDB2411C2B
:102F9000C8B20628F7DB8DF8055006216846FDF714
:102FA0003AFD56E0222E28D122208DF801000C2C6B
:102FB00002D104208DF802000D2C02D105208DF8DD
:102FC00002000E2C02D106208DF8020001208DF89F
:102FD000030000208DF8040000BF05E01DF800107C
:102FE0002944CDB2411CC8B20628F7DB8DF8055044
:102FF00006216846FDF70FFD2BE0232E28D1232064
:103000008DF801000C2C02D104208DF802000D2C4B
:1030100002D105208DF802000E2C02D106208DF879
:10302000020001208DF8030000208DF8040000BF8D
:1030300005E01DF800102944CDB2411CC8B2062895
:10304000F7DB8DF8055006216846FDF7E4FC00E04B
:1030500000BF7CBD2DE9FC4104460D461646002705
:1030600068208DF8000006208DF8010010208DF8F2
:10307000020003208DF803008DF804408DF8055000
:103080008DF806607F208DF80700002005E01DF810
:1030900000103944CFB2411CC8B20728F7DB8DF8C5
:1030A000077008216846FDF7B6FCBDE8FC811CB539
:1030B00068208DF8000030208DF8010004208DF884
:1030C000020001208DF8030000208DF804009D20EF
:1030D0008DF8050006216846FDF79DFC1CBD1CB55A
:1030E00068208DF8000031208DF8010004208DF853
:1030F000020001208DF8030000208DF804009E20BE
:103100008DF8050006216846FDF785FC1CBD1CB541
:1031100068208DF8000032208DF8010004208DF821
:10312000020001208DF8030000208DF804009F208C
:103130008DF8050006216846FDF76DFC1CBD0000FA
:10314000700000205A0000201CB568208DF8000097
:103150002D208DF8010004208DF8020001208DF84B
:10316000030000208DF804009A208DF80500062148
:103170006846FDF750FC1CBD70B505460C46601C4A
:10318000285C332872D2DFE800F0711A20262E3432
:103190003C475461697171717171727D88939E7140
:1031A00071717171717171A9B471C371D5FA71F8CE
:1031B000F7F6F5F4F3F2F1F07171EFEEED00E01CCB
:1031C000285C401D2044C4B21FE1E01C285C401D67
:1031D0002044C4B219E1FFF7BEFBE01C285C401D8F
:1031E0002044C4B211E1E01C285C401D2044C4B25C
:1031F0000BE1FFF7C8FBE01C285C401D2044C4B273
:1032000003E1332222211120FFF724FFE01C285C78
:10321000401D2044C4B2F8E00720FFF7E9FB01217C
:10322000A548FEF757FEE01C285C401D2044C4B2B0
:10323000EBE00820FFF7DCFB00219F48FEF74AFE89
:10324000E01C285C401D2044C4B2DEE0FFF7B8FB60
:10325000E01C285C401D2044C4B2D6E0FFF7F6FB1A
:10326000E01C285C401D2044C4B2CEE0C7E0934A75
:10327000A11C505CFFF774FCE01C285C401D20443E
:10328000C4B2C2E08D4AA11C505CFFF7EDFDE01C0A
:10329000285C401D2044C4B2B7E0884AA11C505CA1
:1032A000FFF798FCE01C285C401D2044C4B2ACE051
:1032B000824AA11C505CFFF770FDE01C285C401D99
:1032C0002044C4B2A1E07D4AA11C505CFFF702FE7D
:1032D000E01C285C401D2044C4B296E0774AA11C43
:1032E000505CFFF7D6FBE01C285C401D2044C4B2B4
:1032F0008BE001217048FEF7EDFD704AA11C505C87
:10330000FFF7CFFCE01C285C401D2044C4B27CE0E9
:10331000201D295CA01C285C0C38694A1154A01C93
:10332000295C2020FFF70CFEE01C285C401D204497
:10333000C4B26AE0601D295C201D285C01EB0020FE
:1033400081B2A01C285C0C385E4A22F81010A01C28
:10335000295C2220FFF7F4FDE01C285C401D20447E
:10336000C4B252E043E03AE031E028E026E024E055
:1033700022E020E01EE01CE01AE018E0FFE7601DFC
:10338000295C201D285C01EB002081B2A01C285C78
:103390000C384D4A22F81010A01C295C2320FFF79E
:1033A000CFFDE01C285C401D2044C4B22DE02CE081
:1033B0002BE02AE029E028E027E026E025E0FFF7DF
:1033C000C3FEE01C285C401D2044C4B21DE0FFF792
:1033D0006EFEE01C285C401D2044C4B215E0FFF7DF
:1033E0007EFEE01C285C401D2044C4B20DE0FFF7C7
:1033F0008EFEE01C285C401D2044C4B205E0E01CA9
:10340000285C401D2044C4B200BF00BF204670BDF0
:10341000024608E0505C08B9C82107E0481CC1B268
:10342000642900DB02E0505C6828F3D100BF084645
:10343000704770B50246C81C105C001DC3B2002462
:103440000025084604E0165C2644F4B2461CF0B29F
:103450005E188642F7DC5818155CAC4201D1012099
:1034600070BD0020FCE770B500241EE0E1B21348F7
:10347000FFF7CEFF0446C82C07D10020134908707F
:10348000C8210E4800F032F80FE0642C0CDAE1B2EB
:103490000A48FFF7CEFF05462DB1E1B20748FFF716
:1034A0006BFE044601E004E003E0084800780028D1
:1034B000DCD100BF70BD0000000400407800002097
:1034C00050000020540000205A0000202C00002052
:1034D000704700000FB4044910B503AA029800F029
:1034E0002BF810BC5DF814FB1C0000204FF000020C
:1034F0000429C0F0128010F0030C00F03180CCF1F0
:10350000040CBCF1020F18BF00F8012BA8BF20F873
:10351000022BA1EB0C0100F023B85FEAC17C24BFB1
:1035200000F8012B00F8012B48BF00F8012B704771
:103530007047704770477047074B70B50D467B4426
:1035400000F039F80446284600F048F810B14FF072
:10355000FF3070BD204670BD2BD3FFFF4FF000023F
:1035600000B5134694469646203922BFA0E80C5079
:10357000A0E80C50B1F12001BFF4F7AF090728BF54
:10358000A0E80C5048BF0CC05DF804EB890028BFD0
:1035900040F8042B08BF704748BF20F8022B11F0F9
:1035A000804F18BF00F8012B7047000001694A1CCA
:1035B00002610878704700B58FB0CDE90131002174
:1035C000059105497944CDE903101146684600F09C
:1035D0002EF80FB000BD0000E5FFFFFF007B00F0FC
:1035E00080007047754600F03FF8AE46050069461A
:1035F000534620F00700854618B020B5FDF73AFA8B
:10360000BDE820404FF000064FF000074FF00008E3
:103610004FF0000B21F00701AC46ACE8C009ACE864
:10362000C009ACE8C009ACE8C0098D4670472DE977
:10363000F04106460024D6E90170F5688046304620
:1036400003E04146B847641C3046A8470028F8D13B
:103650002046BDE8F08110B50446AFF30080204657
:10366000BDE81040FCF7EBBD00487047400100206A
:103670004FF04070E1EE100A704700009C360108E0
:103680000000002078000000E8010108143701085C
:103690007800002028070000040201080095BA0AFB
:1036A00000000000000000000102030406070809F2
:1036B000FFFF01000000000000000000000000000B
:1036C00000000000000000000000000000010203F4
:1036D00004010203040607080900000000000000BE
:1036E00000000108000000000000000032465A00FF
:1036F0007B00C8011503EA005901C8010B00160040
:1037000021002C00370042004D005800F005C40D88
:043710002210000083
:04000005080101AD40
:00000001FF
