:020000040800F2
:10000000B00C0020F90B0008A3020008A5020008AC
:10001000A9020008AD020008B102000800000000BB
:10002000000000000000000000000000B502000811
:10003000B702000800000000B9020008BB02000877
:10004000130C0008130C0008130C0008130C000814
:10005000130C0008130C0008130C0008130C000804
:10006000130C0008130C0008130C0008130C0008F4
:10007000130C0008130C0008130C0008130C0008E4
:10008000130C0008130C0008130C0008130C0008D4
:10009000130C0008130C0008130C0008130C0008C4
:1000A000130C0008130C0008130C0008130C0008B4
:1000B000130C000877080008130C0008130C000844
:1000C000130C0008130C0008130C0008130C000894
:1000D000130C0008FF0A0008130C0008130C00089A
:1000E000130C0008130C0008130C0008130C000874
:1000F000130C0008130C0008130C0008130C000864
:10010000130C0008130C0008130C0008130C000853
:10011000130C0008130C0008130C0008130C000843
:10012000130C0008130C0008130C0008130C000833
:10013000130C0008130C0008130C0008130C000823
:10014000130C0008130C0008130C0008130C000813
:10015000130C0008130C0008130C0008130C000803
:10016000130C0008130C0008130C0008130C0008F3
:10017000130C0008130C0008130C0008130C0008E3
:10018000130C0008130C0008130C0008130C0008D3
:10019000130C0008130C0008130C0008130C0008C3
:1001A000130C0008130C0008130C000800F002F8F0
:1001B00000F044F80AA090E8000C82448344AAF1BD
:1001C0000107DA4501D100F039F8AFF2090EBAE8BB
:1001D0000F0013F0010F18BFFB1A43F0010318477B
:1001E0008C390000AC390000103A24BF78C878C1BF
:1001F000FAD8520724BF30C830C144BF04680C602D
:10020000704700000023002400250026103A28BF74
:1002100078C1FBD8520728BF30C148BF0B60704778
:10022000642903F06783732903F036840020704744
:100230001FB503F095FC1FBD10B510BD03F05EFCAB
:100240001146FFF7F5FF00F011F803F07CFC03B452
:10025000FFF7F2FF03BC00F0BDFB000030BF72B639
:10026000704762B6704780F3088870474FF440705B
:1002700000F0E2FCA82000F02BFB4FF4E13000F08E
:10028000B6FB00F013FC00F03BF900F071F901201F
:1002900000F0BEFA62B603E003F089FA00F0FEFA5D
:1002A000FAE7704700BFFEE700BFFEE700BFFEE7CA
:1002B00000BFFEE770477047704770470CB50020DD
:1002C000019000908348006840F4803081490860C4
:1002D00000BF8048006800F4003000900198401C86
:1002E0000190009818B90198B0F5A04FF1D1794864
:1002F000006800F4003010B10120009001E00020FF
:1003000000900098012860D172484030006840F0A9
:1003100080507049403108606F48006840F44040A8
:100320006D4908606B48083000686A490831086008
:100330000846006840F4004008600846006840F441
:10034000A05008606548091F0860081F006840F059
:100350008070091F086000BF5E48006800F00070F0
:100360000028F9D05C48006840F480305A490860A1
:1003700000BF5948406800F480300028F9D0564842
:10038000006840F400305449086000BF524840689B
:1003900000F400300028F9D040F2057050490860A0
:1003A0004C480830006820F003004A4908310860D2
:1003B0000846006840F00200086000BF4548083069
:1003C000006800F00C000828F8D10CBD10B54548B5
:1003D000006840F47000434908603E48006840F0FF
:1003E00001003C49086000203A490831086039485A
:1003F00000683D490840374908603C48091D0860CD
:10040000081F006820F48020091F0860002031497F
:100410000C310860FFF752FF4FF00060314980391E
:10042000086010BD70B500200022022300240221C4
:10043000284D08352D6805F00C0020B1042806D0A1
:10044000082834D107E02A4D2A4E356033E02A4D82
:10045000284E35602FE01F4D2D1D2D68C5F38054AB
:100460001C4D2D1D2D6805F03F0154B1224DB5FBEB
:10047000F1F5184E361D3668C6F3881605FB06F2F0
:1004800009E01B4DB5FBF1F5124E361D3668C6F37B
:10049000881605FB06F20F4D2D1D2D68C5F301458D
:1004A0006D1C6B00B2FBF3F5124E356003E0104D8E
:1004B000104E356000BF00BF064D08352D68C5F3EE
:1004C00003150E4E705D0B4D2D68C540094E35600D
:1004D00070BD00000038024000700040085A40071C
:1004E000003C024088ED00E0FFFFF6FE10300024E3
:1004F0000024F4000000002000127A000400002014
:100500001CB50121102000F02EFF0121080300F08E
:100510002AFF4FF4F040009001208DF804000020E5
:100520008DF8060003208DF8050000208DF80700E7
:1005300069460C4800F076FC2020009069460A4885
:1005400000F070FC1CBD10B508480188054800F09B
:10055000EEFC2021044800F0E3FC2021024800F0DA
:10056000DDFC10BD00100240000C02401400002011
:100570001CB501214FF4C27000F0F5FE4FF400509D
:10058000009000208DF8040003208DF80500002065
:100590008DF8070069463D4800F044FC10200090AB
:1005A00069463B4800F03EFC4FF48070009069467D
:1005B000384800F037FC1CBD10B5044614B10120CA
:1005C000354908703448007868B34FF48071314879
:1005D00000F08AFC50B14FF400512C4800F084FC2C
:1005E00020B110212A4800F07FFCE0B90A2000F079
:1005F000D1F90020284908704FF48071254800F097
:1006000073FC08B9012010BD4FF400511F4800F0E1
:100610006BFC08B90220F6E710211D4800F064FCCD
:10062000B0B90320EFE74FF480711A4800F05CFC8A
:1006300001280DD14103154800F056FC012807D1CF
:100640001021134800F050FC012801D11249087014
:100650000020D8E710B50020FFF7AEFF0446012CBC
:1006600004D0022C06D0032C0CD107E00BA003F021
:10067000D7F808E00BA003F0D3F804E00BA003F0D8
:10068000CFF800E000BF00BF10BD0000000802402E
:10069000001C0240002002401600002052656164E8
:1006A000790D0A004E6578740D0A00004F4B0D0A53
:1006B0000000000001460868704701464848814232
:1006C00001D2002070474748814201D20820F9E753
:1006D0004548814201D21020F4E74448814201D2CA
:1006E0001820EFE74248814201D22020EAE7414842
:1006F000814201D22820E5E73F48814201D23020E3
:10070000E0E73E48814201D23820DBE73C488142A5
:1007100001D24020D6E73B48814201D24820D1E7B0
:100720003948814201D25020CCE75820CAE72DE950
:10073000F04704460E4617464FF009080025A94623
:10074000B4F1006F02D304F0030008B1BDE8F087F4
:1007500001F0C4F9002001F0A4F9254604EB870953
:100760002A48854215D211E02846FFF7A3FF401C16
:1007700058B12846FFF7A1FF8246022101F002FA94
:100780008046B8F1090F01D002E02D1D4D45EBD395
:1007900000BFB8F1090F0CD108E02046316801F024
:1007A0000DFB092800D003E0241D361D4C45F4D371
:1007B00000BF012001F075F901F09DF900BFC5E708
:1007C00030B503460C461546002206E01846FFF7F2
:1007D00071FF44F822001B1D521CAA42F6D330BD03
:1007E000004000080080000800C000080000010868
:1007F00000000208000004080000060800000808C5
:1008000000000A0800000C0800000E080000FF1F8E
:100810007FB5054644F2506429480068B0FBF4F007
:10082000B0FBF5F60121022000F0E4FD0296ADF8E0
:1008300004400020ADF80600ADF80C0001A92148E5
:1008400001F0DBFE012211461E4802F077FB1D205D
:100850008DF8000001208DF8030000208DF80100C4
:1008600001208DF80200684600F0EBF901211548DF
:1008700001F04CFF7FBD10B50121124802F075FB5D
:10088000012806D11049087010480078401C0F4913
:10089000087001210B4802F079FB10BD10B50A4821
:1008A000007810B100200849087008480078022834
:1008B00004DD00200549087002F0C3FC10BD0000F3
:1008C0000000002000040040170000201800002055
:1008D00010B504466FF0040000F000FAE11704EBD5
:1008E0005171C1F3C701394A11701046007800EB0D
:1008F0004001C1EBC0104FF6FF7101EAC00034495E
:10090000088010BD0146314A12784A434FF0E02377
:100910005A6100229A611A46126942F001021A6174
:1009200000BF4FF0E022106900F001021AB100F49C
:100930008032002AF5D04FF0E022126922F0010245
:100940004FF0E0231A6100229A6170470146204A65
:1009500012884A434FF0E0235A6100229A611A46F6
:10096000126942F001021A6100BF4FF0E0221069E3
:1009700000F001021AB100F48032002AF5D04FF0E5
:10098000E022126922F001024FF0E0231A610022F6
:100990009A61704770B504464FF4077094FBF0F00D
:1009A000C6B24FF4077094FBF0F100FB114085B222
:1009B00005E04FF40770FFF7C9FF701EC6B2002EA6
:1009C000F7D115B12846FFF7C1FF70BD1A0000200E
:1009D0001C00002000BF704700BF7E4A128802F052
:1009E0004002002AF9D0C2B27A4B9A80704710B503
:1009F00088B004460121084600F0B5FC0121102012
:100A000000F009FD0121880500F0ADFC0722092155
:100A1000714800F092FA07220A216F4800F08DFA1F
:100A20004FF4C060069002208DF81C008DF81D0068
:100A300000208DF81E0001208DF81F0006A96648D1
:100A400000F0F0F902940020ADF80C00ADF80E00B3
:100A5000ADF81000ADF814000C20ADF8120002A99A
:100A60005C4800F03AFE01215A4800F0BEFE4021E9
:100A7000584800F0A2FF012240F22551554800F0ED
:100A80006AFF01224021534800F05CFF25208DF8C9
:100A9000040003208DF805008DF8060001208DF874
:100AA000070001A800F0CDF808B010BD00B58FB068
:100AB0004FF0006000904748001D019047480290A9
:100AC000002003904FF496600490002005904FF4AE
:100AD000806006900020079008904FF48070099085
:100AE00000020A9000200B9003200C9000200E9032
:100AF0000D9069463A4801F0A1FB0FB000BD10B55A
:100B000040F22551334800F061FFA8B140F2255171
:100B1000304800F096FF002240F225512D4800F0A9
:100B20001AFF012240F224412A4800F014FF01215B
:100B30002B4801F0BDFB24E040F22441254800F0A1
:100B400045FFF0B140F22441224800F07AFF2448EA
:100B500001F0D1FBC0F596602249086000212048D1
:100B600001F0A6FB012240F225511A4800F0F3FEE5
:100B7000002240F22441174800F0EDFE01201A49FE
:100B8000087010BD10B51748006801280CD9164828
:100B90000078012808D1114A1248016813A002F018
:100BA0003FFE00200F49086010BD70B505460E4697
:100BB00000240CE0295D074800F042FE00BF8021C0
:100BC000044800F0EDFE0028F9D0601CC4B2B44225
:100BD000F0DB70BD0010014000000240001000205A
:100BE000406402402C0000203000002025642D2DA0
:100BF0002D25730D0A000000094880470948004769
:100C0000FEE7FEE7FEE7FEE7FEE7FEE7FEE7FEE7BC
:100C1000FEE7FEE704480549054A064B7047000019
:100C2000CD030008AD010008B0000020B00C00208A
:100C3000B0040020B004002032490143324A116060
:100C4000704770B5002100230F22C4781CB32E4CCE
:100C5000246804F4E064C4F5E064C4F30721C1F13E
:100C60000404E3B20A4144789C40E1B28478144021
:100C700021430C07210E254C05786155047804F0BA
:100C80001F050124AC4005786D11AD0005F1E0258C
:100C9000C5F8004109E0047804F01F050124AC40C8
:100CA0001B4D0678761145F8264070BD194A0A405A
:100CB0000243154B1B1F1A60704739B1124A121DAF
:100CC00012680243104B1B1D1A6006E00E4A121DEB
:100CD000126882430C4B1B1D1A607047042808D110
:100CE0004FF0E021096941F004014FF0E022116169
:100CF00007E04FF0E021096921F004014FF0E02204
:100D0000116170470000FA050CED00E000E400E01E
:100D100080E100E080FFFF1F10B504469848844240
:100D200008D10121084600F087FB0021012000F0D6
:100D300083FB76E09348844208D10121022000F031
:100D40007BFB0021022000F077FB6AE08E488442A2
:100D500008D10121042000F06FFB0021042000F0E5
:100D60006BFB5EE08948844208D10121082000F035
:100D700063FB0021082000F05FFB52E084488442BE
:100D800008D10121102000F057FB0021102000F0B5
:100D900053FB46E07F48844208D10121202000F027
:100DA0004BFB0021202000F047FB3AE07A488442C8
:100DB00008D10121402000F03FFB0021402000F03D
:100DC0003BFB2EE07548844208D10121802000F0D1
:100DD00033FB0021802000F02FFB22E0704884428A
:100DE00008D10121801500F027FB0021A01500F09B
:100DF00023FB16E06B48844208D10121401500F026
:100E00001BFB0021601500F017FB0AE066488442D6
:100E100007D10121001500F00FFB0021201500F083
:100E20000BFB10BDF0B50A4600210023002400BFD3
:100E30003DE0012505FA01F3156805EA03049C422B
:100E400034D105684F000326BE40B54305601579CF
:100E50004E00B5400668354305601579012D02D076
:100E60001579022D16D185684F000326BE40B54383
:100E7000856055794E00B540866835438560456884
:100E800001268E40B5434560456896798E40B6B2DE
:100E900035434560C5684F000326BE40B543C56075
:100EA000D5794E00B540C6683543C560491C102948
:100EB000BFD3F0BD4FF6FF71016000210171417198
:100EC0008171C171704708B54FF480320092009A69
:100ED0000A430092009AC261C161009AC261C2696C
:100EE0000092C269009208BD0246002013690B40BF
:100EF0000BB1012000E0002070470146086980B274
:100F000070470246002053690B400BB1012000E0FE
:100F1000002070470146486980B2704701837047DE
:100F2000418370470AB1018300E04183704741610A
:100F3000704742694A4042617047F0B5002300247F
:100F40004D07ED0E02FA05F3CE1000F1200555F81D
:100F500026504E07F70E0F26BE40B543CF1000F1C6
:100F6000200646F82750CE1000F1200555F82650EF
:100F700045EA0304CE1000F1200545F82640F0BDF7
:100F8000000002400004024000080240000C024041
:100F9000001002400014024000180240001C0240F1
:100FA000002002400024024000280240F648006869
:100FB00040F00100F44908600020F349083108605E
:100FC000F1480068F1490840EF490860F048091D00
:100FD0000860F048EC4984310860ED481038091D7C
:100FE0000860E948006820F48020E7490860002094
:100FF000E5490C310860E4498C31086070470021F4
:10100000E14A921C117011460870704710B50146F4
:101010000022002300204A11012A02D1DA4C236861
:1010200008E0022A03D1D84C7034236802E0D64C81
:101030007434236801F01F02012494401C400CB159
:10104000012000E0002010BD38B5002000900024F1
:10105000002500BF3120FFF7D9FF05460098401C4E
:1010600000900098B0F5A04F01D0002DF2D03120B3
:10107000FFF7CCFF08B1012400E00024204638BD72
:1010800001460020C04A106820F0F80040EAC10084
:1010900010607047C049086070470021BA4A70323A
:1010A00011701170012802D004280AD104E0012136
:1010B000B54A7032117005E00521B34A70321170E3
:1010C00000E000BF00BF7047B4490860704770B5CA
:1010D000049C41EA82150126C6EB530645EA064503
:1010E000054345EA0465A84E361D356070BDAA4922
:1010F0000866704710B5830143EA016343EA02734F
:10110000A14C8434236010BDA3498866704710B594
:10111000830143EA016343EA02739B4C88342360F2
:1011200010BD9D49086770479B49C86470470246D7
:101130000020954B0833186820F0EC6042EA010368
:101140001843914B083318607047024600208E4BBD
:101150000833186820F0784042EA010318438A4BAC
:1011600008331860704701460020874A083210682B
:1011700020F003000843106070478348083000687F
:1011800000F00C007047014600207F4A08321068CA
:1011900020F0F000084310607047014600207A4AB2
:1011A0000832106820F4E050084310607047014690
:1011B0000020754A0832106820F4604040EAC100FF
:1011C00010607047F0B5002100220024022500269F
:1011D00002236D4F08373F6807F00C0121B1042945
:1011E00005D0082937D105E06D4F076036E06D4F17
:1011F000076033E0644F3F1D3F68C7F38056624F7E
:101200003F1D3F6807F03F036EB1664FB7FBF3F732
:10121000DFF874C10CF1040CDCF800C0CCF3881CBE
:1012200007FB0CF40CE05E4FB7FBF3F7DFF858C197
:101230000CF1040CDCF800C0CCF3881C07FB0CF4A8
:10124000514F3F1D3F68C7F301477F1C7D00B4FB32
:10125000F5F7076002E0524F076000BF00BF4A4F3A
:1012600008373F6807F0F00109094F4F7A5C0768BB
:10127000D7404760444F08373F6807F4E051890A78
:10128000494F7A5C4768D74087603F4F08373F68CF
:1012900007F46041490B444F7A5C4768D740C76008
:1012A000F0BD002100F44072B2F5407F0AD1364A09
:1012B0000832116821F4F8113C4A02401143324AC5
:1012C00008321160304A70321268C0F30B031A43BF
:1012D0002D4B70331A6070473049443908607047AD
:1012E0002E4940390860704731490860704701460F
:1012F0000020254A8C32106820F01F004A1E10433F
:10130000214A8C3210607047014600201E4A8C3200
:10131000106820F4F8504A1E40EA02201A4A8C3223
:101320001060704701460020174A8C32106820F484
:10133000401008431060704701460020124A8C326A
:10134000106820F4400008431060704701460020F8
:101350000D4A8C32106820F440300843106070470A
:1013600014490860704739B1074A303212680243A5
:10137000054B30331A6006E0034A3032126882436C
:10138000014B30331A60704700380240FFFFF6EA25
:10139000103000240030002000004742800E4742F9
:1013A0000024F40000127A0031000020FFFCFF0F3F
:1013B0005C014742E011474229B1934A1268024357
:1013C000914B1A6004E0904A126882438E4B1A6077
:1013D000704739B18C4A121D126802438A4B1B1D9B
:1013E0001A6006E0884A121D12688243864B1B1D54
:1013F0001A60704739B1844A0C3212680243824B3A
:101400000C331A6006E0804A0C32126882437E4B2D
:101410000C331A60704739B17B4A103212680243AC
:10142000794B10331A6006E0774A10321268824313
:10143000754B10331A60704739B1734A243A1268F9
:101440000243714B243B1A6006E06F4A243A12684B
:1014500082436D4B243B1A60704739B16A4A203A87
:1014600012680243684B203B1A6006E0664A203A45
:1014700012688243644B203B1A60704739B1624A5C
:101480001C3A12680243604B1C3B1A6006E05E4A3D
:101490001C3A126882435C4B1C3B1A60704739B19E
:1014A000594A143A12680243574B143B1A6006E03B
:1014B000554A143A12688243534B143B1A607047E2
:1014C00039B1514A103A126802434F4B103B1A602F
:1014D00006E04D4A103A126882434B4B103B1A60AB
:1014E000704739B1484A1C3212680243464B1C33DC
:1014F0001A6006E0444A1C3212688243424B1C3395
:101500001A60704739B1404A2032126802433E4B9C
:1015100020331A6006E03C4A2032126882433A4B7C
:1015200020331A60704739B1374A243212680243B7
:10153000354B24331A6006E0334A24321268824362
:10154000314B24331A60704739B12F4A2C3212685C
:1015500002432D4B2C331A6006E02B4A2C321268C2
:101560008243294B2C331A60704739B1264A3032F6
:1015700012680243244B30331A6006E0224A3032AC
:1015800012688243204B30331A607047012808D11B
:101590001D493C31096841F008011B4A3C32116089
:1015A00007E019493C31096821F00801164A3C322C
:1015B0001160704739B1144A273A12780243124B2E
:1015C000273B1A7006E0104A273A127882430E4BE6
:1015D000273B1A7070470C484030006840F080701C
:1015E000094940310860704701460020064A283A00
:1015F00012680A400AB1012000E000207047024949
:1016000026390870704700003438024010B504468F
:10161000FA48844208D101211020FFF751FF002130
:101620001020FFF74DFF57E0F548844209D1012112
:101630004804FFF734FF00214FF40030FFF72FFF7D
:101640004AE0F048844209D101218804FFF727FFCE
:1016500000214FF48020FFF722FF3DE0EA4884425A
:1016600009D10121C804FFF71AFF00214FF400201F
:10167000FFF715FF30E0E548844209D10121080554
:10168000FFF70DFF00214FF48010FFF708FF23E064
:10169000DF48844208D101212020FFF711FF0021FB
:1016A0002020FFF70DFF17E0DA48844209D101211D
:1016B0008807FFF7F4FE00214FF08040FFF7EFFEB0
:1016C0000AE0D548844207D101214005FFF7E7FE33
:1016D00000216005FFF7E3FE10BD2DE9FF47054639
:1016E0000E460024A14600BFA046B08900B100BF4D
:1016F0002C8A24F44054F08804432C82AC8941F2B3
:101700000C608443B08831890843718908430443DD
:10171000AC81AC8A24F44074B0890443AC8268463E
:10172000FFF750FDB548854202D0B948854202D145
:10173000DDF80C9001E0DDF80890A88900F4004085
:1017400040B109EBC90000EB091031684900B0FB5A
:10175000F1F707E009EBC90000EB091031688900D7
:10176000B0FBF1F76420B7FBF0F00401200964211D
:1017700001FB1078A88900F4004040B1322000EB52
:10178000C800B0FBF1F000F00700044308E032208D
:1017900000EB08106421B0FBF1F000F00F000443EF
:1017A0002C81BDE8FF874FF4165101600021818034
:1017B000C18001810C21418100218181704710B5D8
:1017C00002460020108A20F470600B884C88234366
:1017D0008C882343CC8823431843108210BD0021FA
:1017E000018041808180C180704721B1828942F4AB
:1017F0000052828104E082894DF6FF731A40828193
:101800007047028B02F47F420283028B0A430283F9
:10181000704721B1828942F40042828103E08289CB
:10182000C2F30E028281704721B1828A42F40062C3
:10183000828204E0828A4FF2FF731A4082827047EC
:10184000C1F308028280704701468888C0F308000F
:101850007047028A4FF6F0731A400282028A0A43E6
:101860000282704721B1828942F00202828104E043
:1018700082894FF6FD731A408281704782894FF248
:10188000FF731A40828182890A4382817047028AEB
:101890004FF6DF731A400282028A0A4302827047BF
:1018A00021B1028A42F48042028204E0028A4BF6AD
:1018B000FF731A4002827047818941F001018181E2
:1018C000704721B1828A42F00802828204E0828A53
:1018D0004FF6F7731A4082827047028BD2B20283AE
:1018E000028B42EA01220283704721B1828A42F0D0
:1018F0002002828204E0828A4FF6DF731A408282DD
:10190000704721B1828A42F01002828204E0828A0A
:101910004FF6EF731A4082827047828A4FF6FB734C
:101920001A408282828A0A438282704721B1828A67
:1019300042F00202828204E0828A4FF6FD731A406E
:10194000828270471AB1838A0B43838202E0838AC2
:101950008B4383827047F0B50346002400260025A0
:10196000002040F66A17B94200D100BF1846C1F303
:10197000421401F01F06012707FA06F5012C01D1D8
:101980000C3004E0022C01D1103000E014301AB108
:1019900007682F43076002E00768AF430760F0BDA8
:1019A00002460020B1F5007F00D100BF13880B4034
:1019B0000BB1012000E00020704701F40072B2F585
:1019C000007F00D100BFCA430280704770B5024655
:1019D000002400230025002040F66A16B14200D101
:1019E00000BFC1F3421501F01F03012606FA03F3FD
:1019F000012D13D19689334017E0000000100140FB
:101A00000044004000480040004C004000500040AE
:101A10000014014000780040007C0040022D02D1FB
:101A2000168A334001E0968A33400C12012606FAEA
:101A300004F41688344013B10CB1012000E00020FA
:101A400070BD10B50022002340F66A14A14200D1F7
:101A500000BF0A1201249440A3B2DC43048010BDED
:101A6000FE4A1070704730B1FC49096841F480713A
:101A7000FA4A116005E0F949096821F48071F74AD2
:101A80001160704730B1F549096841F40071F34ABB
:101A9000116005E0F149096821F40071EF4A116015
:101AA000704730B1ED49096841F48061EB4A11603B
:101AB00005E0EA49096821F48061E84A116070474D
:101AC000E648006840F40060E44908607047E34875
:101AD000006840F48050E14908607047DF481030EA
:101AE000006800F0004028B1DD48DC49091D0860AD
:101AF000DC4808607047D9481030006840F000406A
:101B0000D6491031086070470920D4490C31096862
:101B100001F48031B1F5803F01D1012020E0CF49AF
:101B20000C31096801F0100109B1062018E0CB4919
:101B30000C31096801F4807109B1022010E0C74935
:101B40000C31096801F0EF0109B1072008E0C34931
:101B50000C31096801F0020109B1082000E00920F8
:101B6000704708B509200090FFF7CEFF009002E013
:101B7000FFF7CAFF00909DF800000128F8D09DF8FB
:101B8000000008BD70B504460A460026092502B9C2
:101B900009E0012A01D1160205E0022A01D116024C
:101BA00001E04FF44076FFF7DCFF0546092D2DD10B
:101BB000AA481030006820F44070A849103108602D
:101BC00008460068304308600846006820F0F800C6
:101BD00008600846006844F0020108439F4910313C
:101BE00008600846006840F480300860FFF7B9FFDD
:101BF00005469A481030006820F0020097491031DD
:101C000008600846006820F0F8000860284670BDAB
:101C100030B5024600250924FFF7A3FF044602B9A8
:101C200009E0012A01D1150205E0022A01D11502BD
:101C300001E04FF44075092C23D18848103000682A
:101C400020F4407085491031086008460068284338
:101C5000086008460068C9130843804910310860CD
:101C60000846006840F480300860FFF77AFF0446B9
:101C70007A481030006848F20401884377491031EF
:101C80000860204630BD30B5024600250924FFF724
:101C900068FF044602B909E0012A01D1150205E0F6
:101CA000022A01D1150201E04FF44075092C20D120
:101CB0006A481030006820F44070684910310860AC
:101CC00008460068284308600846006840F00400A1
:101CD00008600846006840F480300860FFF741FF64
:101CE00004465E481030006820F004005B49103163
:101CF0000860204630BD30B5024600250924FFF7B4
:101D000030FF044602B909E0012A01D1150205E0BD
:101D1000022A01D1150201E04FF44075092C20D1AF
:101D20004E481030006820F440704C491031086073
:101D300008460068284308600846006840F40040F0
:101D400008600846006840F480300860FFF709FF2B
:101D5000044642481030006820F400403F491031EA
:101D60000860204630BD70B5064614461D4609225F
:101D7000FFF7F7FE0246092A1ED1384810300068E6
:101D800020F440703549103108600846006840F47E
:101D9000407008600846006840F001000860346048
:101DA0007560FFF7DEFE02462C481030006820F018
:101DB00001002A4910310860104670BD30B5024656
:101DC0000C460925FFF7CDFE0546092D1DD12348F8
:101DD0001030006820F44070204910310860084637
:101DE000006840F4007008600846006840F0010098
:101DF00008601460FFF7B5FE05461848103000680B
:101E000020F00100154910310860284630BD30B57A
:101E100002460C460925FFF7A4FE0546092D24D1EC
:101E20000E481030006820F440700C4910310860F2
:101E30000846006840F4807008600846006840F07A
:101E4000010008601480FFF78CFE0546034810303F
:101E5000006820F001000149103105E0003C02401B
:101E600023016745AB89EFCD0860284630BD30B50A
:101E700002460C460925FFF774FE0546092D17D1C9
:101E80009A48006820F44070984908600846006845
:101E900008600846006840F0010008601470FFF711
:101EA00060FE05469148006820F001008F490860F7
:101EB000284630BD8D48001D006800F0010028B1A3
:101EC0008B488A49083908608A4808607047874803
:101ED000001D006840F001008449091D086070473A
:101EE00030B502460C460925FFF73BFE0546092D95
:101EF00010D13CB17D48801D008890437B49891DED
:101F0000088007E07948801D008891B2084377492E
:101F1000891D088030BD30B502460C460925FFF703
:101F200020FE0546092D10D13CB170480A300088CA
:101F300090436E490A31088007E06C480A300088F7
:101F400091B2084369490A31088030BDFF21674AD0
:101F5000D21D127802F07F0140EA0102634BDB1DC3
:101F60001A70704730B502460C460925FFF7F9FD97
:101F70000546092D10D144B15C48801D008891B2FE
:101F800008435A49891D088006E05848801D00888A
:101F900090435649891D088030BD30B502460C4635
:101FA0000925FFF7DEFD0546092D10D144B14F4844
:101FB0000A30008891B208434C490A31088006E093
:101FC0004A480A300088904348490A31088030BDA9
:101FD00010B502460924FFF7C4FD0446092C02D1BE
:101FE0004248401D027010BDF0B504460D46FF2664
:101FF0000927FFF7B6FD0746092F0BD13B48001D07
:10200000007800F01F0645EA0600104320433749D8
:10201000091D0870F0BD3549091D097821F010012E
:10202000324A121D11701146097801431170704730
:102030002E49091D097821F00C012C4A121D11703E
:102040001146097801431170704700B509222748ED
:10205000001D007840F002002449091D0870FFF7B8
:1020600080FD0246104600BD2048001D0068C0F3F8
:10207000471070471D48801D008870471B480A3074
:10208000008870471948801D0088704717480A303B
:102090000088704700201549491D0978AA2901D0F8
:1020A000012000E0002070471048001D007800F07B
:1020B0000C00704729B10D4A126802430B4B1A609D
:1020C00004E00A4A12688243084B1A6070470146CE
:1020D0000020064A121F12680A400AB1012000E0DF
:1020E000002070470149091F08607047103C0240FA
:1020F0003B2A19087F6E5D4C016821F001010160E7
:102100000021016041608160C16001612121416164
:10211000DB49884204D13D21D94A103A91608CE0D4
:10212000D7491831884205D14FF47461D44A103A26
:10213000916082E0D2493031884205D14FF4741168
:10214000CF4A103A916078E0CD494831884205D1B4
:102150004FF07461CA4A103A91606EE0C84960312C
:10216000884204D1C749C64A103AD16065E0C449E3
:102170007831884204D1C449C14A103AD1605CE048
:10218000BF499031884204D1C049BD4A103AD1605C
:1021900053E0BB49A831884205D14FF03D51B84AC0
:1021A000103AD16049E0BA49884204D13D21B84A89
:1021B000083A116041E0B6491831884205D14FF420
:1021C0007461B34A083A116037E0B149303188424E
:1021D00005D14FF47411AE4A083A11602DE0AC49B4
:1021E0004831884205D14FF07461A94A083A11601C
:1021F00023E0A7496031884204D1A249A44A121FB2
:1022000011601AE0A2497831884204D19E49A04A5F
:10221000121F116011E09E499031884204D19B4900
:102220009B4A121F116008E09949A831884204D1E5
:102230004FF03D51964A121F1160704710B50022B1
:102240000268944B1A40CC680B6823434C692343C3
:102250008C692343CC6923430C6A23434C6A234390
:102260008C6A23434C6B23438C6B23431A430260D9
:10227000426922F00702D1E90B3423431A43426139
:102280000B6943604B6883608B68C36010BD00219D
:10229000016041608160C160016141618161C16132
:1022A000016241628162C16201634163816370477F
:1022B00021B1026842F00102026003E0026822F0EC
:1022C00001020260704721B1026842F400420260DC
:1022D00003E0026822F400420260704721B1026804
:1022E00042F02002026003E0026822F02002026055
:1022F0007047416070470146486880B2704722B11C
:10230000036843F40023036003E0036823F400231D
:1023100003600161704721B1026842F480220260CB
:1023200003E0026822F48022026070470AB1016172
:1023300000E0C1607047014600200A6802F40022F4
:102340000AB1012000E000207047014600200A6821
:1023500002F001020AB1012000E0002070470146AE
:1023600000204A6902F03800704730B503460A463B
:1023700000200024464DAB4202D24149103901E011
:102380004349103902F000550DB14C6800E00C686B
:10239000414D2C4004EA02050DB1012000E000206F
:1023A00030BD02463A4B9A4202D23548103801E01D
:1023B0003748103801F000531BB1374B0B40C36056
:1023C00002E0354B0B408360704710B501F080038D
:1023D0004BB122B1436943F08003436103E0436999
:1023E00023F08003436180290BD02AB1036801F0F8
:1023F0001E042343036004E0036801F01E04A343AA
:10240000036010BD70B50246002000240025204E58
:10241000B24202D21A4B103B01E01D4B103B1F4E43
:102420000E4036B11E2606EAD124166806EA0405D7
:1024300002E0566906F0800501F000560EB15C68B6
:1024400000E01C68144E344004EA010616B10DB1D8
:10245000012000E0002070BD02460D4B9A4202D2DE
:102460000748103801E00A48103801F000531BB14A
:10247000094B0B40C36002E0074B0B408360704781
:10248000106002403D000020400F002000003D2071
:10249000106402403F801CF07D0F7D0F3C0F3C0F0D
:1024A00010B50446FE48844208D101210846FFF7D2
:1024B00007F800210120FFF703F89DE0B4F1804FF9
:1024C00008D101210846FEF7EAFF00210120FEF7AE
:1024D000E6FF91E0F348844208D101210220FEF793
:1024E000DEFF00210220FEF7DAFF85E0EE4884429D
:1024F00008D101210420FEF7D2FF00210420FEF7BD
:10250000CEFF79E0E948844208D101210820FEF796
:10251000C6FF00210820FEF7C2FF6DE0E4488442B8
:1025200008D101211020FEF7BAFF00211020FEF78C
:10253000B6FF61E0DF48844208D101212020FEF788
:10254000AEFF00212020FEF7AAFF55E0DA488442C2
:1025500008D101210220FEF7B3FF00210220FEF77F
:10256000AFFF49E0D548844209D101210804FEF7B4
:10257000A7FF00214FF48030FEF7A2FF3CE0D048D7
:10258000844209D101214804FEF79AFF00214FF44B
:102590000030FEF795FF2FE0CA48844209D101219F
:1025A0008804FEF78DFF00214FF48020FEF788FF9E
:1025B00022E0C548844208D101214020FEF76FFF88
:1025C00000214020FEF76BFF16E0C048844208D18E
:1025D00001218020FEF763FF00218020FEF75FFFCE
:1025E0000AE0BB48844207D101218015FEF757FF5E
:1025F0000021A015FEF753FF10BD00220288A84B52
:1026000098420ED0AC4B98420BD0B0F1804F08D01E
:10261000A44B984205D0A44B984202D0A34B9842B9
:1026200004D14FF68F731A404B881A43A04B98423F
:1026300007D0A04B984204D04FF6FF431A400B89B5
:102640001A4302804B68C3620B880385944B9842FF
:1026500002D0994B984201D18B7A03860123838261
:1026600070474FF0FF3141600021018001814180BE
:10267000817270470185828270470A460021018875
:102680004FF68F73194011430180704741627047C4
:10269000C16270470146486A70470146088D70471D
:1026A00021B1028842F00202028004E002884FF663
:1026B000FD731A400280704721B1028842F0040283
:1026C000028004E002884FF6FB731A4002807047D4
:1026D00021B1028842F08002028004E002884FF6B5
:1026E0007F731A400280704702884FF6F7731A40D2
:1026F000028002880A430280704702884FF6FF4337
:102700001A40028002880A430280704721B1028881
:1027100042F00102028004E002884FF6FE731A4084
:102720000280704770B5002400220023058C4FF60C
:10273000FE7635400584028C8388048B4FF68F75B6
:102740002C40B51E2C400D882C43751E2A408D89C7
:102750002A434D882A43524DA84202D0564DA842E2
:1027600013D14FF6F7752A40CD892A434FF6FB75F2
:102770002A408D882A434FF6FF652B404FF6FF55C0
:102780002B400D8A2B434D8A2B43838004838D6815
:102790004563028470BD70B5002400220023058CBF
:1027A0004FF6EF7635400584028C8388048B48F61B
:1027B000FF752C404FF6FF452C400D884FF6FF76F5
:1027C00006EA05252C434FF6DF752A408D8906EA77
:1027D00005152A434D8806EA05152A43304DA842BF
:1027E00002D0354DA8421DD14FF67F752A40CD89C4
:1027F0004FF6FF7606EA05152A434FF6BF752A40C5
:102800008D8806EA05152A434FF6FF352B404FF217
:10281000FF752B400D8A06EA85052B434D8A06EA93
:1028200085052B43838004838D688563028470BD96
:1028300070B5002400220023058C4FF6FF6635405A
:102840000584028C8388848B4FF68F752C404FF65D
:10285000FC752C400D882C434FF6FF552A408D897E
:102860004FF6FF7606EA05252A434D8806EA052538
:102870002A430B4DA84202D00F4DA84238D14FF247
:10288000FF752A40CD894FF6FF7606EA05252A43D3
:102890004FF6FF352A408D8806EA05252A4319E0C0
:1028A000000001400004004000080040000C00400F
:1028B00000100040001400400004014000400140AE
:1028C000004401400048014000180040001C004046
:1028D000002000404EF6FF752B404DF6FF752B4053
:1028E0000D8A06EA05152B434D8A06EA05152B438A
:1028F000838084838D68C563028470BD70B50022B7
:1029000000230024058C4EF6FF7635400584038CA9
:102910008488828B48F6FF752A404FF6FF452A408F
:102920000D884FF6FF7606EA05252A434DF6FF751A
:102930002B408D8906EA05352B434D8806EA05357F
:102940002B43FE4DA84202D0FD4DA84208D14BF6C4
:10295000FF752C400D8A4FF6FF7606EA85152C434D
:10296000848082838D680564038470BD00210180AA
:102970004180818081608181C18101824182704773
:1029800070B50346002000241846183001258D40FC
:10299000ACB21D8CA5431D8409B108290AD100EBF6
:1029A000610005684FF68F76354005600568154370
:1029B00005600FE00D1FC5F34E052844056848F675
:1029C000FF763540056005684FF6FF7606EA022679
:1029D0003543056070BD4163704781637047C163D3
:1029E0007047016470470A460021018B4FF68F73D0
:1029F00019401143018370470A460021018B48F6B4
:102A0000FF7319404FF6FF7303EA02231943018352
:102A100070470A460021818B4FF68F73194011438E
:102A2000818370470A460021818B48F6FF73194065
:102A30004FF6FF7303EA02231943818370470A4666
:102A40000021018B4FF6F773194011430183704742
:102A50000A460021018B4FF2FF7319404FF6FF73B6
:102A600003EA02231943018370470A460021818B40
:102A70004FF6F77319401143818370470A460021CE
:102A8000818B4FF2FF7319404FF6FF7303EA022365
:102A90001943818370470A460021018B4FF6FB736F
:102AA00019401143018370470A460021018B4FF6FC
:102AB000FF3319404FF6FF7303EA022319430183E2
:102AC00070470A460021818B4FF6FB731940114372
:102AD000818370470A460021818B4FF6FF331940EE
:102AE0004FF6FF7303EA02231943818370470A46B6
:102AF0000021018B4FF67F7319401143018370470A
:102B00000A460021018BC1F30E014FF6FF7303EA61
:102B100002231943018370470A460021818B4FF637
:102B20007F7319401143818370470A460021818BCE
:102B3000C1F30E014FF6FF7303EA022319438183A9
:102B400070470A460021018C4FF6FD73194011436E
:102B5000018470470A460021018C4FF6F773194033
:102B60001143018470470A460021018C4FF6DF7340
:102B700019404FF6FF7303EA0213194301847047AB
:102B80000A460021018C4FF67F7319404FF6FF7300
:102B900003EA02131943018470470A460021018C9D
:102BA0004FF6FF5319404FF6FF7303EA0223194310
:102BB000018470470A460021018C4FF2FF731940CF
:102BC0004FF6FF7303EA02231943018470470A4654
:102BD0000021018C4DF6FF7319404FF6FF7303EA95
:102BE000023319430184704730B5002301248C401F
:102BF000A3B2048C9C430484048C02FA01F5ADB2A8
:102C00002C43048430BD30B5002304248C40A3B28F
:102C1000048C9C430484048C02FA01F5ADB22C436D
:102C2000048430BD828B4FF2FF331A408283828B43
:102C30004FF6FF7303EA01231A4382837047F0B50E
:102C40000C461546002100220026078C4EF6FF7C1C
:102C500007EA0C070784818B028C4FF6FF7707EA9F
:102C6000043640F6FF4739404FF6FF7707EA05275D
:102C700039434FF6FF7707EA0337394345F6FF77C5
:102C80003A4046F480573A4381830284F0BD828BF8
:102C90004FF6F3731A408283828B0A438283704714
:102CA000F0B50C461546002100220026078C4FF691
:102CB000FF6C07EA0C070784818B028C4FF6FF77C5
:102CC00007EA04264FF60C7739404FF6FF7707EAFC
:102CD00003172F4339434FF2FF573A4046F48077AA
:102CE0003A4381830284F0BD028B4FF2FF331A40D6
:102CF0000283028B4FF6FF7303EA01231A43028318
:102D00007047F0B50C461546002100220026078CBE
:102D10004FF6EF7C07EA0C070784018B028C4FF615
:102D2000FF7707EA041640F6FF4739404FF6FF7772
:102D300007EA033739434FF6FF7703E0000001400D
:102D40000004014007EA052739434FF65F773A4010
:102D500046F010073A4301830284F0BD028B4FF620
:102D6000F3731A400283028B0A4302837047F0B563
:102D70000C46154600210022068C4FF6FE773E4099
:102D80000684018B028C4FF60C7631407E1C06EADD
:102D900003162E4331434FF6F576324044F00106D8
:102DA000324301830284F0BD70B505460C4620888D
:102DB00050B92389A28861882846FFF7D8FFE188A7
:102DC0002846FFF7CBFF25E0208804280AD1238975
:102DD000A28861882846FFF794FFE1882846FFF71C
:102DE00083FF17E0208808280AD12389A2886188F8
:102DF0002846FFF755FFE1882846FFF748FF09E01E
:102E00002389A28861882846FFF719FFE1882846B0
:102E1000FFF708FF70BD0021018041800121818002
:102E20000021C180018170472DE9F04105460C4623
:102E300000260127608808B9022600E00026A08845
:102E4000012801D1022700E001272088A0B92389A9
:102E5000A28861882846FFF78AFFE1882846FFF7A5
:102E60007DFF23893A4631462846FFF74AFFE1882D
:102E70002846FFF739FF13E02389A2886188284696
:102E8000FFF73FFFE1882846FFF72EFF23893A46E8
:102E900031462846FFF76BFFE1882846FFF75EFFC3
:102EA000BDE8F0810146486B70470146886B70476A
:102EB0000146C86B70470146086C70470A884B880A
:102EC0001A438B881A43CB881A430B891A434B89C0
:102ED0001A438B891A43A0F84420704700210180CF
:102EE00041808180C180018141818181704731B100
:102EF000B0F8442042F40042A0F8442005E0B0F8C5
:102F00004420C2F30E02A0F84420704721B1828809
:102F100042F00402828004E082884FF6FB731A407C
:102F20008280704721B1828842F00102828004E0F1
:102F300082884FF6FE731A40828070471AB18389E7
:102F40000B43838102E083898B43838170478182B5
:102F5000704702460020138A0B400BB1012000E0AD
:102F600000207047CA430282704730B502460020F5
:102F700000230024158A05EA0103958905EA010466
:102F800013B10CB1012000E0002030BDCA43028221
:102F9000704741EA0203A0F8483070471AB18389AC
:102FA0000B43838102E083898B438381704721B186
:102FB000828842F00802828004E082884FF6F7732C
:102FC0001A408280704701894FF6F87211400181E2
:102FD00070470A46002101894FF68F73194011434B
:102FE0000181704730B504460D4629462046FFF75B
:102FF000F0FF208940F00700208130BD2DE9F0412D
:1030000004460D4616461F46602D06D13B4601225A
:1030100031462046FFF775FE05E03B46012231466A
:103020002046FFF7A4FE29462046FFF7D2FF20895D
:1030300040F007002081BDE8F08130B50C4600214A
:103040000189C9B24FF6FF7505EA032515432543EB
:103050002943018130BD2DE9F04105460E46174652
:103060009846002443463A4631462846FFF7E5FF96
:103070002C894FF6F870044044F007044FF68F7027
:10308000044044F070042C81BDE8F081F0B50446A2
:103090000D4616461F463B46324629462046FFF758
:1030A000CCFF208940F480402081F0BD82884FF61B
:1030B0008F731A40828082880A4382807047028917
:1030C0004FF6F8731A40028102890A430281704761
:1030D00002894FF67F731A40028102890A430281F6
:1030E0007047F0B50C4615461E460021002200230D
:1030F0000189028B038C4FF6F877394021434FF654
:10310000FC473A4040F201173A434FF6DD773B4027
:103110004FF6FF7707EA06172F433B4301810283EF
:103120000384F0BD21B1828842F08002828004E0F5
:1031300082884FF67F731A4082807047A0F8501043
:103140007047000010B504462068FE490840B0F101
:10315000005F09D16068FC4908602068FDF783F8CA
:10316000F9480068804702E0F8A000F059FB10BD64
:103170001CB568208DF8000000208DF80100142097
:103180008DF8020001208DF8030000208DF8040066
:103190007D208DF8050006216846FDF706FD1CBD63
:1031A0001CB568208DF8000001208DF80100142066
:1031B0008DF8020001208DF8030000208DF8040036
:1031C0007E208DF8050006216846FDF7EEFC1CBD4B
:1031D0001CB568208DF8000002208DF80100142035
:1031E0008DF8020001208DF8030000208DF8040006
:1031F0007F208DF8050006216846FDF7D6FC1CBD32
:103200001CB568208DF8000003208DF80100142003
:103210008DF8020001208DF8030000208DF80400D5
:1032200080208DF8050006216846FDF7BEFC0022CF
:103230000121C848FFF782FE0021C648FFF766FA61
:103240001CBD1CB568208DF8000004208DF801001D
:1032500014208DF8020001208DF8030000208DF865
:10326000040081208DF8050006216846FDF79DFCCD
:1032700072B6B948FFF766FF1CBD1CB568208DF813
:10328000000005208DF8010014208DF802000120B7
:103290008DF8030000208DF8040082208DF80500D1
:1032A00006216846FDF781FC00220121A948FFF7AD
:1032B00045FE0021A748FFF729FA72B64FF00060DB
:1032C000FFF740FF1CBD2DE9FC4104460D461646A4
:1032D000002768208DF8000006208DF801001020DE
:1032E0008DF8020003208DF803008DF804408DF85E
:1032F00005508DF806607F208DF80700002005E05E
:103300001DF800103944CFB2411CC8B20728F7DBC2
:103310008DF8077008216846FDF747FCBDE8FC8181
:103320001CB568208DF8000009208DF801001020E0
:103330008DF8020001208DF803008DF80400832031
:103340008DF8050006216846FDF72FFC1CBD0246DE
:103350000020002122FA01F303F0010318430121A8
:1033600006E0400022FA01F303F001031843491C70
:103370002029F6D370472DE9F04105460E46174641
:103380000024A0467548006800F0400028B9734842
:10339000006840F040007149086001207049886071
:1033A00000240DE027B155F8240090FA80F801E0E0
:1033B00055F824804046FFF7CAFF69490860641C3D
:1033C000B442EFD366490868FFF7C1FFC043BDE8C8
:1033D000F0812DE9F047ADF5806D04464FF0000A0D
:1033E000D1460027B84600264FF48061684600F0B9
:1033F000BDFA5C480078682805D04FF6FF700DF5DF
:10340000806DBDE8F087574890F805A4C07855490D
:10341000097940EA0128052504E05248405D8144CD
:10342000681C85B208F105008542F6DB09F0FF094A
:10343000CA457CD14B484078012802D002284DD1A2
:103440004DE0052706E04748C15D781F0DF80010E4
:10345000781C87B208F105008742F4DB2046E117AB
:1034600004EB91718910A4EB8104002534E0E81C81
:103470001DF80000000606EB04213B4A42F821003B
:1034800006EB0420114651F82010A81C1DF800007E
:1034900041EA004006EB042142F8210006EB04203B
:1034A000114651F82010681C1DF8000041EA002068
:1034B00006EB042142F8210006EB0420114651F8E6
:1034C00020001DF80510084306EB042142F82100F6
:1034D000281D85B2701C86B24545C8DB64E005270F
:1034E00006E02048C15D781F0DF80010781C87B2F7
:1034F00008F105008742F4DB2046E11704EB9171E7
:103500008910A4EB810400254BE0E81C1DF80000A5
:10351000000606EB0421144A42F8210006EB0420C1
:10352000114651F82010A81C1DF8000000E03CE0F6
:1035300041EA004006EB042142F8210006EB04209A
:10354000114613E00000FE2F440000206572726FE8
:1035500072210000000400400000010830380240E1
:103560000030024000100020B014002051F820105C
:10357000681C1DF8000041EA002006EB042142F817
:10358000210006EB0420114651F820001DF805101B
:10359000084306EB042142F82100281D85B2701C67
:1035A00086B24545B1DB00BF01E04FF6FF784046EB
:1035B00025E770B50024002592480068FFF709FF51
:1035C00004464FF6FF70844200D170BD8D480068FC
:1035D000401C8C490860B4F5806F42DA08460068E8
:1035E000012807D12046E11704EB91718910491C8D
:1035F0008DB22EE08348006802280BD105F580705B
:1036000085B22046E11704EB91718910491C2944C9
:103610008DB21EE07B48006803280BD105F50070D1
:1036200085B22046E11704EB91718910491C2944A9
:103630008DB20EE07348006804280AD105F5407089
:1036400085B22046E11704EB91718910491C294489
:103650008DB22A466C496D480068FDF768F8002570
:1036600012E06848006804280ED1020266496748E3
:103670000068FDF75CF86548006800F58050634914
:10368000086000205F49086000BF9EE770B50546EE
:103690000C46601C285C0A2855D2DFE800F0050DB6
:1036A0001B2931394154544CFFF762FDE01C285C62
:1036B000401D204484B24CE0FFF77BFFFFF770FD14
:1036C000E01C295C201D285C01EB0020401D2044EB
:1036D00084B23EE0FFF76DFFFFF77AFDE01C295C46
:1036E000201D285C01EB0020401D204484B230E006
:1036F000FFF786FDE01C285C401D204484B228E0D2
:10370000FFF79FFDE01C285C401D204484B220E0B0
:10371000FFF7B3FDE01C285C401D204484B218E094
:10372000332222211120FFF7CEFDE01C285C401D32
:10373000204484B20DE0FFF7F3FDE01C285C401D3F
:10374000204484B205E0E01C285C401D204484B283
:1037500000BF00BF204670BD70B50246C81C105C9B
:10376000001DC3B200240025C8B204E0165C264444
:10377000F4B2461CF0B25E188642F7DC5818155CAD
:10378000AC4201D1012070BD0020FCE7024608E0F8
:10379000505C08B9C82107E0481C81B2642900DBED
:1037A00002E0505C6828F3D100BF0846704770B54E
:1037B000002422E021461648FFF7E8FF0446C82C03
:1037C00003D100201349087017E0642C15DA124861
:1037D0000068B0F5806F0BD221460D48FFF7BCFFA3
:1037E000054655B121460A48FFF750FF044604E05C
:1037F00021460748FFF74AFF04460648007800289C
:10380000D8D170BD4C000020B0140020480000202A
:1038100000100020300000202C0000207047000025
:103820000FB4044910B503AA029800F039F910BC8E
:103830005DF814FB200000202DE9F0410E460446FF
:10384000002020622046E168884730B3252805D053
:10385000D4E901219047206A401CF2E7E168204644
:1038600000278847050018D0A5F14100192802D883
:1038700020354FF400673246294620462760FCF782
:10388000CFFC40B1012804D0F61D26F0070608360B
:10389000D8E7361DD6E72846DAE7206ABDE8F0818A
:1038A00070B50C460546012A05D02878800600D55B
:1038B000EA69002302E0012305E05B1C934202D287
:1038C000E05C0028F9D1A869E618C01AA861286A46
:1038D000184428622846AFF3008004E0D5E90121AE
:1038E00014F8010B9047B442F8D32846AFF3008098
:1038F00070BD00002DE9F0410646002410687529CE
:10390000314616A510D0AFF30080002802DA4042FD
:1039100013A507E031688A0701D512A502E049071F
:1039200004D511A5012401E0AFF3008000210A2293
:1039300006F1240709E0B0FBF2FCB0FBF2F302FB56
:103940001C00303078541846491C0028F3D1234617
:103950002A463046BDE8F04100F033B800000000D0
:103960002D0000002B000000200000004FF000029E
:1039700000B5134694469646203922BFA0E80C5065
:10398000A0E80C50B1F12001BFF4F7AF090728BF40
:10399000A0E80C5048BF0CC05DF804EB890028BFBC
:1039A00040F8042B08BF704748BF20F8022B11F0E5
:1039B000804F18BF00F8012B704770477047704761
:1039C00070472DE9F0470D4699469246044600F1AE
:1039D00024080168880604D5E06921F010012160FF
:1039E00000E00120A84201DD471B00E00027A1699B
:1039F0007A1902EB0900081AA0612078C00602D4E7
:103A00002046AFF30080002608E0D4E901211AF82F
:103A100006009047206A401C761C20624E45F4DB6D
:103A20002078C0060AD52046AFF3008006E0D4E92E
:103A3000012130209047206A401C2062381EA7F1E7
:103A40000107F4DC07E0D4E9012118F805009047EC
:103A5000206A401C2062281EA5F10105F3DC2046E7
:103A6000AFF300802078000602D50220BDE8F08781
:103A70000120FBE710B5436913B1AFF3008001E00B
:103A8000FFF70EFF012010BD127800F124010A702B
:103A900000224A700122EDE711684FF0FF32E9E79A
:103AA000074B70B50D467B4400F011F804462846DC
:103AB00000F020F810B14FF0FF3070BD204670BD0F
:103AC0002FCFFFFF01694A1C02610878704700B5DB
:103AD0008FB0CDE901310021059105497944CDE947
:103AE000031011466846FFF7A7FE0FB000BD0000A7
:103AF000E5FFFFFF007B00F080007047754600F097
:103B00002BF8AE4605006946534620F0070085466F
:103B100018B020B5FDF77EF8BDE820404FF0000654
:103B20004FF000074FF000084FF0000B21F00701A5
:103B3000AC46ACE8C009ACE8C009ACE8C009ACE8E8
:103B4000C0098D46704710B50446AFF3008020468B
:103B5000BDE81040FCF77BBB0048704750000020D8
:103B60004FF04070E1EE100A704700008C3B0008F7
:103B70000000002050000000E8010008DC3B0008C5
:103B80005000002060240000040200080095BA0ADA
:103B900000000000000000000102030406070809FD
:103BA000FFFF010000000000000000000000000016
:103BB0000000000000000000000000000000000005
:103BC00000010203040102030406070809000000C3
:0C3BD000000000000000010800000000E0
:04000005080001AD41
:00000001FF
